:400000000010002011000000B5030000B503000008B500F081FA00F0CFF90000F7B572B680220021D200554800F0EDFF802200215348D20000F0E7FF0023191C514C1859E1
:400040001034C2B20192071CFF2297434A00A4180022019ED5B2AE4209D05500665D6519B446BC446D78664635700132F1E7C0B204330918102BE1D1434BC02292041A60F8
:40008000424B99221A60424A00231360414A80211160414AC9031160404A40211160404AC021490311603F4A312113603E4B02221A603E4B802019603D4B3E491A60992317
:4000C0001B040B603C49000608603C493C200B603B4B8021890519603A493B4B19603B4B19780A431A703A4A117881431420014311701A7816210A431A70364A8023116893
:40010000DB020B431360344B141C1878334BC0B21978334BC9B21A78172A05D9314A58789978033B9342F6D12F4B192218602F4B052019602E4B1A6000F05EFD2D4B052061
:400140001A782D4BD2B21A6000F09EFE22682B4B134023602A4A2B4B1A602B4B10221A602A4B20221A602A4B802212061A60294A294B1A60294A2A4B1A60F7BD00300F40BF
:4001800000400F402410000004000140100001400C000140000004400800044000010440080104400803044000040440080404401804044000500F4004500F4010500F403F
:4001C00018500F40100001002001054000700F4001700F4000010B40CCF1FF0FCDF1FF0FC9F1FF0FBDF1FF0F1CFF0B4020FF0B402CFF0B40E5F1FF0F28FF0B40FFFFFBFF57
:400200000600008004010B40080202402002024008010B401000008000000240AF0400804000024010B5064C2378002B07D1054B002B02D0044800E000BF0123237010BDEC
:40024000F0000020000000002010000008B5084B002B03D00748084900E000BF07480368002B03D0064B002B00D0984708BDC0460000000020100000F4000020D00000200F
:400280000000000010B562B600F0ACFC00280ED16524012000F0E2FD00F0A4FC002806D1013CE4B2002CF4D1034B40221A6000F08BFC00F0DBFAFEE7C000002008B500F01E
:4002C00015FB00F04DFB00F0B5FB08BD70B5054B0D1C161C0024C9B21C8000F09FFB3580201C70BD0C010020F0B50A275F4387B003900591151C00262D4CBE4219DA00F0E6
:400300001DFB80B220802388002B0CD00220268800F0A4FD00F012FB80B220802388B6B2B342F3D807E00120013600F097FDB6B2E2E7052600E0002600272F802388002B4D
:4003400033D023889BB2019301992B885A18059992B22A808A4221D2019ABB189BB2029302998F4209D07B1C9BB20493039BDF1900F0CAFA3870049FF2E772B62388019AF8
:400380009B1A9BB2238062B6039A5318013B1B78172B08D0052000F061FD04E02B8000F0DFFA052601E0029FC8E7301C07B0F0BD0C010020FEE7000070B51048104B013895
:4003C000421C15D01E685C689D680022A118AA4203D0B158A1500432F8E7DA680D1C4C1B944202D0002410C1F9E710330138E7E700F0DAFDFFF746FFFEE7C046010000003B
:400400007410000008B500239A00032B02D80D49895800E00C490D4801338150302BF3D1FFF7FCFD0A4B00221A600A4B1A68002A00D11A608023DB051A6801210A431A60B7
:4004400008BDC04600000000B503000000000020C8000020C0000020004770B5051C0E1C141C002802D0002000F0EAFC0020002C05D0013CAA19125D8318D8B2F7E770BD7A
:40048000013808B509282AD8C901494200F078FD0507090B0D0F1614181B154B08E0154B12E0154B0DE0154B0EE0154B00E0154BC9180878C0B21AE0134B02E0134B00E0A0
:4004C000134BC9180FE0134BC9180B7848788A780002120410431843CB781B0606E0002000F0AEFC00210B7848780002184308BDC07F0000C17F0000C57F0000C97F0000EF
:40050000D07F0000D17F0000D67F0000D27F0000D47F0000D87F00000C4B10B51A6810231A400B4B00D11A601A68802A0DD100240220211C1C60FFF7A3FFA04205D0211C6B
:400540000220FFF79DFFFFF787FF10BD00030B40C0000020F8B5051C291C0320FFF790FF291C041C0420FFF78BFF671CFF013F18291C0320FFF784FF00240130C001261C79
:40058000B84209D203785A1ED2B2FD2A00D801261C19E4B20130F3E70120291CFFF770FF6442E4B20623844203D17242564176423340181CF8BD0000F0B5A44CA544FFF756
:4005C0007DFE62B600260096002506AC03AE9621201C4900321CFF23FFF786FE0028F4D13188062900D88AE022780423012A54D1E778A2783F021743E2195679B44616796F
:400600000196FE1D8E427FD89279172A45D1FB189BB2002B08D09CA98D4ECA1892191278013B801880B2F3E7019B614640420A0280B21A43082382422FD167E0342B00D040
:400640009DE0009901295AD1032F58D151A80021802200F0D8FC802551A948192639ED19FA1EFF39ADB200F0C5FC832D49D1A079637900021843774B36021B6880191A68BB
:4006800080B2D3099BB2560601D001339BB298427BD20127009700250A2300210120207068466A46437681766B4600200E32D8760B1D11809BB29CAFFE18654F013BF61954
:4006C00036789BB2801980B2002BF4D19CAE624F7318DE194042614F80B23070DE19000A30705F4807311B181720187089B2201C9623FFF7EBFD68E7009E012E1BD0042315
:40070000CBE70126009600250323C6E763782679181C31380A2801D90523BEE700F03AFCECFF1400FCFF8EFF3F00FCFF430054008EFF63008B00002FE1D1381CFFF70AFF35
:4007400043424341237173E000980128D7D1012FD5D1002ED3D13F4B1B681B68DA0BD2B2DB09DBB2002A01D080235B0023711B0A6371FF23A3710023E37104218EE7009BA6
:40078000012BBCD1022FBAD966E751A900F048FA002800D07DE701260096051C12E0009F012FACD110E7009E012EA8D19623EE195B009E42A8D851A948193A1C07A900F0C2
:4007C00019FCB5B2002368E7002F98D104AB254A191C41CA41C107AA41CB41C2012600963B1C08215AE70098012888D1032F86D1A37962791B021A43310251180192C901C8
:4008000000208022FFF729FE071C002E0ED10199FF290BD1311C0520FFF732FE311C3F1A0620FFF72DFEFFB23F1AFFB27F4227710023012132E70020FFF78CFE002802D179
:40084000094B80221A6000F0FDFA58E78CFDFFFFA7FDFFFFD4000020ACFDFFFFADFDFFFFAEFDFFFF48100000C000002038B50020FFF770FE0025A84200D00625124C00209C
:400880002368C0211A68C03AFFF7E7FD62681378181AC0B2984203D123681B68002B02D1002000F0CDFA094B19681A1C402901D0002D03D000231360FFF77EFE80221A6083
:4008C00000F0C0FA38BDC046D4000020C000002008B5054B8022196812060A431A600A2000F09AFA08BDC0460000064010B5054C2378002B03D100F0BFF801232370FFF7AD
:40090000E7FF10BD10010020094B0A4A1968136899420BD011684B1C4039481E814149420B400549C85C1360C0B200E000207047B0010020280100206C010020064B074ACB
:400940001B6811688B4202D31068181A02E012684133981A7047C046B0010020280100200C4A0D4B002130B5106811601D68802464022C431C601D68084C2C401C60084BAB
:400980001C68084B1C60084B19700849084B1960106030BDC80F064004030640FFFFFEFF28010020B0010020AD010020ED0F0000C00F0640124910B50A68531C3F3A541E44
:4009C000A241524213400F4A1468A342FBD00C681268944208D10C4A14680F222240082A02D00A4B18600AE0094C02222260094CC0B2E0540B60084B19680A431A6010BD22
:400A000024010020200100200802064040020640800F06402C010020880F064038B5041C4518AC4204D02078FFF7C4FF0134F8E738BD00000B4A0023116810B513600A4B55
:400A400080201C684002204318601C68074820401860074B1868074B186002239943116010BDC046880F064004020640FFFFFEFF20010020240100201D4A1E4B10B51A60F0
:400A80001D4B00241C601D4B01221A601C491D4B07200B601C4908601C490A200C601C490A601C4A13601C4B1C6000F0BFF90A20032100F091F919490A2000F081F9184BAE
:400AC00004221C60174B1C60174B1C60174B1C60174B1A60174B1C60174B1C60174B1C60174B1C70174B1C60174B1C6010BDC0460B00000200000640400006404800064060
:400B0000000306400700008004030640100306404400064000020640040206409D0E0000880E0640C80E0640480F0640080F0640C80F0640880F0640B00100202801002070
:400B4000AD01002024010020200100200E4B8422D2041A601968802252020A431A600B490B4A0A60196819600A4BC32189001960094B00211960094B1C211960084B1A6087
:400B8000084A094B1A60704700010540080105401027000024010540380105402801054014010540881300000C01054008B500F02DF8044B01211A680A431A6000F02AF858
:400BC00008BDC0460000054010B5054C2378002B03D1FFF7BBFF01232370FFF7E7FF10BD18010020024B18680006C00F7047C04604000440000000000230800804D0C046B1
:400C00000138FDD1C046C046C0467047EFF3108072B6704780F310887047C046C046C046F0B50024CBB0069404900794FF2800D9A4E0A14200D1A1E008AD8022281C00F06E
:400C4000D9F9231C211C221C029498002858002802D01218014302930133202BF5D1002A05D1002900D08EE00191039102E0002001900390484F7F2328AE291C80222AA87D
:400C80002897464C736000F0B5F9454A454B266013602168090F0A2903D022680F23134000E000230693069F002F69D1FFF7AEFF3D4A3E4B116807971960069B0590002B56
:400CC00014D13B4A04982892289A01040A43289228AA22603249374A0A602268120F0A2A03D02E4B1A680F2313400693069F002F38D1019A002A35D0391C8022281C00F00F
:400D000082F90298039A08A983005A50224B2AA8289380227F23736000F06CF9214820492660086023681B0F0A2B03D01B4B1F680F231F400697069B002B13D11E4A049871
:400D40002892289A01040A43289215491B4A26600A602268120F0A2A03D0104B1A680F2313400693079B002B04D1104A0E481268026007930598FFF74DFF01E00423069343
:400D800006984BB0F0BD02998B00E85801210390EA5001916EE7C046B6D7000008000040040000400400008008010B401C010020B6D8000005000080B6D900000600008055
:400DC0001F2800D901BE034A80008318186819607047C0464000002038B5041C0D1E032D00D901BE1F2C00D901BEFFF70FFFA308084A9B009B18032214409440196806345C
:400E0000A2409143A5400C1C2C431C60FFF702FF38BDC04600E400E01F23184001238340181C014B1860704700E100E01F23184001238340181C014B1860704780E100E0EC
:400E400001BE7047034B04491A6892B20A431A607047C0460CED00E00400FA0510B5041C8022074B1202944205D91868FFF7C4FE044BE418F4E758686043FFF7BDFE10BD5B
:400E8000DC0000200080FFFF08B5034B1B7A5843FFF7B2FE08BDC046DC000020274B10B51B68002B00D09847254B1B685A071DD5244B1B681A0716D0234B244A1868116868
:400EC0004B1C40394C1EA14149420B40204909688B4203D11F4B20221A70E9E71E49C0B2C8541360E4E71D4B04221A601C4B1B689A0721D51B4B1A680F231340082B18D02B
:400F0000194B1A4A1968136899420DD011684B1C3F39481E814149420B401549C85C1549C0B208601360E5E7134B02211A688A431A60124B02221A6010BDC0461401002099
:400F4000CC0F06400803064040030640B001002028010020AD0100206C010020C00F06408C0F06400802064024010020200100202C01002040020640880F0640800F0640AE
:400F800002B4714649084900095C49008E4402BC7047C04603B47146490840004900095E49008E4403BC704770B50E4B0E4D0024ED1AAD101E1CAC4204D0A300F358984765
:400FC0000134F8E700F044F8084B094D0024ED1AAD101E1CAC4204D0A300F35898470134F8E770BD5C1000005C1000005C1000006410000010B50023934203D0CC5CC4548E
:401000000133F9E710BD031C8218934202D019700133FAE770470000A8100000EE0000000000000001330F4003410F4004430F4002600F40E61062048E04D84018808C40AD
:40104000C608E608020111019311C804111E0101F8B5C046F8BC08BC9E4670474D02000005040000F8B5C046F8BC08BC9E4670472502000088100000D0000020200000004B
:40108000C80000000000000000000000181000001C1000000000E02EC05D00001800000000366E01000000000000000000000000000000000000000000000000000000002C
:4010C00000000000000000000000000000000000000000000000000000000000000000000000000000000000000000000000000000000000000000000000000000000000F0
:401100000010002011110000D9180000D918000080B500AF024B83F3088800F009FCC0460010002080B584B000AF021CFB1D1A70204A3B1C0B3312781A701F4A3B1C0A3331
:4011400012781A700423013BFB6018E01B4B1868391C0B31FA68131C5B009B18C3185B780B70164B1868391C0A31FA68131C5B009B18C3189B780B70FB68013BFB60FB6890
:40118000002B0ADB0D4B1968FA68131C5B009B185B5CFA1D12789A42D8D9094B3A1C0B3212781A60074B3A1C0A3212781A60BD4604B080BDCCF1FF0FCDF1FF0FD80000206C
:4011C0001CFF0B4020FF0B4080B500AF194B194A12688021C9020A431A601820FFF7A2FF154B19221A60052000F03EFC134B144A1278D2B21A60052000F01EFD0D4B0D4A71
:401200001168104A0A401A600F4B104A1A60104B20221A600F4B10221A600F4B802212061A600E4B0E4A1A600E4B0F4A1A60BD4680BDC04600010B402CFF0B4028FF0B406D
:40124000E5F1FF0FFFFFFBFF04010B4006000080080202400C02024008010B40000002400E000080400002401000008080B582B000AF72B6FB1D00221A7023E0FB1D1A783B
:40128000131C5B009B185B00354A9B183B603B681A78597809020A43997809040A43DB781B0613431A1C3B6819795B791B020B439BB2101C191C00F0C1FBFB1D1A78FB1D70
:4012C00001321A70FB1D1B78012BD7D9254BEE2212041A60244BEE2212021A60234B99221A60234B30221A60224B902292021A60214BD82212011A60204B02221A60204B1C
:4013000031221A601F4B02221A601F4B992212041A601E4B992212041A601D4B1C4A1278D2B202210A43D2B21A701A4B194A1278D2B23C218A43D2B214210A43D2B21A7001
:40134000134B134A1278D2B216210A43D2B21A70FFF73AFF00F082FBBD4602B080BDC04608310000000001400C00014010000140000004400800044008030440000404403F
:40138000080404401804044000500F4030500F4000700F4001700F4010B5064C2378002B07D1054B002B02D0044800E000BF0123237010BD5001002000000000DC300000A2
:4013C00008B5084B002B03D00748084900E000BF07480368002B03D0064B002B00D0984708BDC04600000000DC30000054010020D00000200000000090B593B002AF00F058
:4014000045FC00F0C9FE62B63B1C3F3320221A70102000F0FDF8232000F0D2F8012000F0A7F80E2000F0F4F83C1C3E3400F00AF9031C23703C1C3D3400F0B4F8031C2370B5
:401440003C1C3C3400F0D6F8031C23703C1C3B34022000F02FF8031C23703B1C3B331B78391C2031114A081C111C1A1C01F032FA3B1C3E331A783B1C3C331B78391C3D310F
:401480000C78381D0A49009401F024FA3B1C2033181C00F0EBFE3B1D181C00F0E7FEFA239B00181C00F0A4FBBBE7C046E0300000F430000080B584B000AF021CFB1D1A7016
:4014C0003B1C0C3300221A703B1C0C33FA1D12781A703B1C083300221A703B1C0C336820191C0122022300F05FFCC04600F080FD021C02231340F9D03B1C08336820191CA4
:401500000122012300F0DEFCC04600F071FD021C01231340F9D03B1C08331B78181CBD4604B080BD80B584B000AF0A1CFB1D011C1970BB1D1A703B1C0C33FA1D12781A706C
:401540003B1C0C33BA1D12785A703B1C0C336820191C0222002300F027FCC04600F048FD021C02231340F9D0BD4604B080BDC04690B585B000AF021CFB1D1A703C1C0F34E5
:40158000FB1D1B78181C00F0A9F8031C23703B1C0F331B780320191CFFF7C4FFBD4605B090BDC04680B500AF0320FFF783FF031C181C00F05BF8031C181CBD4680BDC04613
:4015C00090B585B000AF021CFB1D1A703C1C0F34FB1D1B78181C00F0E5F8031C23703B1C0F331B780420191CFFF79CFFBD4605B090BDC04680B500AF0420FFF75BFF031C71
:40160000181C00F097F8031C181CBD4680BDC04690B585B000AF021CFB1D1A703C1C0F34FB1D1B78181C00F021F9031C23703B1C0F331B780520191CFFF774FFBD4605B098
:4016400090BDC04690B583B000AFFC1D0520FFF731FF031C2370FB1D1B78181C00F0CEF8031C181CBD4603B090BDC04680B584B000AF021CFB1D1A703B1C0F3370221A705C
:401680003B1C0E330F221A70FB1D3A1C0F321B7812781340DAB23B1C0D3312091A703A1C0D323B1C0D331B78191C8900CB18DB1813703B1C0C33FA1D391C0E3112780978CE
:4016C0000A401A703A1C0D323B1C0C3312781B78D318DBB2181CBD4604B080BD90B585B000AF021CFB1D1A703C1C0F34FB1D1B78181C0A2101F060F8031C23703B1C0F330C
:401700001B780A2252425343D9B23B1C0E33FA1D12788A181A703B1C0F331B781B01DAB23B1C0E331B781343DBB2DBB2181CBD4605B090BD80B584B000AF021CFB1D1A7050
:401740003B1C0F3370221A703B1C0E330F221A70FB1D3A1C0F321B7812781340DAB23B1C0D3312091A703A1C0D323B1C0D331B78191C8900CB18DB1813703B1C0C33FA1DF7
:40178000391C0E31127809780A401A703A1C0D323B1C0C3312781B78D318DBB2181CBD4604B080BD90B585B000AF021CFB1D1A703C1C0F34FB1D1B78181C0A2100F0FCFF55
:4017C000031C23703B1C0F331B780A2252425343D9B23B1C0E33FA1D12788A181A703B1C0F331B781B01DAB23B1C0E331B781343DBB2DBB2181CBD4605B090BD80B584B0B4
:4018000000AF021CFB1D1A703B1C0F3330221A703B1C0E330F221A70FB1D3A1C0F321B7812781340DAB23B1C0D3312091A703A1C0D323B1C0D331B78191C8900CB18DB1837
:4018400013703B1C0C33FA1D391C0E31127809780A401A703A1C0D323B1C0C3312781B78D318DBB2181CBD4604B080BD90B585B000AF021CFB1D1A703C1C0F34FB1D1B78AE
:40188000181C0A2100F098FF031C23703B1C0F331B780A2252425343D9B23B1C0E33FA1D12788A181A703B1C0F333A1C0F32127812011A703B1C0D33391C0F313A1C0E3205
:4018C000097812780A431A703B1C0D331B78181CBD4605B090BDC04680B500AFFEE7C04680B584B000AF78600F4B1A687B68D3181A1C0E4BD31A802B09DC0B4B1B68FB60F4
:40190000094B1A687B68D218074B1A6007E000F0A3FF031C0C221A6001235B42FB60FB68181CBD4604B080BDD4000020B001002080B586B000AF224B7B61224B3B61204BB5
:401940007B6135E03B691B68FB603B695B68BB603B699B683B6000237B600CE0FB681A68BB681A60BB680433BB60FB680433FB607B6804337B607A683B689A42EED13B69A1
:40198000DB683B6000237B6008E0BB6800221A60BB680433BB607B6804337B607A683B689A42F2D13B6910333B617B69013B7B617B69002BC6D100F055FFFFF71DFDFEE7B8
:4019C000010000007031000080B582B000AF00237B600FE07B68032B04D8134B7A689200D35800E0114B124A796889008B507B6801337B607B682F2BECD9FFF737FC0D4B06
:401A000000221A600C4B1B68002B02D10A4B00221A608023DB058022D205126801210A431A60BD4602B080BD00110000D918000000000020C8000020C000002080B582B09F
:401A400000AF786039607A683B68101C00211A1C00F037FFBD4602B080BDC04680B500AFBD4680BD000000000230800804D0C0460138FDD1C046C046C0467047EFF3108026
:401A800072B6704780F310887047C046C046C04680B584B000AF021C3960FB1D1A7080239B05FB60FB1D1B781F2B02D9002000F095F8FB1D1B7810339B00FA68D3181B689E
:401AC000BB60FB1D1B7810339B00FA68D3183A681A60BB68181CBD4604B080BD90B587B000AF0A1CFB1D011C1970BB1D1A70BB1D1B78032B02D9002000F070F8FB1D1B7886
:401B00001F2B02D9002000F069F8FB1D1A7803231340DB0006337B613C1C1334FFF7AEFF031C2370FB1D1B789B08DBB29B0014495B181B68FB607B690322111C99400B1CAE
:401B4000DA43FB681340FB60BB1D1A787B69111C99400B1CFA681343FB60FB1D1B789B08DBB29B00064A9B18FA681A603B1C13331B78181CFFF786FFBD4607B090BDC04668
:401B800000E400E080B582B000AF021CFB1D1A70064BFA1D11781F220A400121081C9040021C1A60BD4602B080BDC04600E100E080B582B000AF021CFB1D1A70064BFA1D6A
:401BC00011781F220A400121081C9040021C1A60BD4602B080BDC04680E100E080B582B000AF021CFB1D1A7001BEBD4602B080BD80B582B000AF786008E00C4B1B68181C7F
:401C0000FFF732FF7B680A4A9B187B607A6880231B029A42F1D8074B1B687A685343181CFFF722FFBD4602B080BDC046E80000200080FFFFE000002080B582B000AF021C27
:401C4000BB1D1A80BB1D1B88044A12785343181CFFF70AFFBD4602B080BDC046E400002080B500AF00F02CF8BD4680BD80B500AF054B054A1268802109060A431A6000F03E
:401C800017F8BD4680BDC0460000074080B500AF064B1B78002B04D1FFF7E2FF034B01221A70FFF7E3FFBD4680BDC0466C01002080B500AF0B20FFF765FFBD4680BDC04694
:401CC00080B500AF234B234A12680C210A431A60214B00221A60214B214A1A60214B224A1A60224B00221A60214B00221A60214B1D4A1A60204B00221A600B20FFF758FF2F
:401D00000B200321FFF7EAFE1C4B0B20191CFFF7BFFE1B4B00221A601A4B00221A601A4B00221A60194B1422FF321A60184B00221A60184B00221A60174B10221A70174B35
:401D400000221A80164B00221A60164B00221A60BD4680BD70000740000007406000074077080080000307400701008004030740100307400002074004020740A1220000F6
:401D8000C80E0740880E0740480F0740080F0740C80F0740880F07408401002094010020A40100208C01002080B586B000AFF860B9607A603B6004237B61BB68002B20D024
:401DC000324B1B78DBB2102B0CD10B20FFF7F0FE2F4B1A680123134001D0082300E000237B610EE0294B1B78DBB2602B09D1294B1B889BB2082293439AB2264B1A8000230C
:401E00007B617B69002B38D1204B28221A70224B00221A60214B00221A60214B7A681A60204BBA681A603B68DAB21F4B1A70FB685A00FF231340FB60164B1B889BB202226A
:401E400093439AB2134B1A80184B194A1A60194B40221A603A680123134005D000F0EAF8154BFA681A6005E0134BFA681A60134B02221A60124B40221A600B20FFF782FED7
:401E80007B69181CBD4606B080BDC046840100206400074094010020880100208C01002090010020A80100209C010020000F074017030000800F07404002074068000740FE
:401EC000880F074080B586B000AFF860B9607A603B6004237B61BB68002B20D0374B1B78DBB2102B0CD10B20FFF762FE344B1A680123134001D0082300E000237B610EE047
:401F00002E4B1B78DBB2602B09D12E4B1B889BB2082293439AB22B4B1A8000237B617B69002B43D1254B29221A70274B00221A60264B7A681A60264BBA681A603B68DAB260
:401F4000244B1A70FB685A00FF23134001221343FB601C4B1B889BB2012293439AB2194B1A801D4B1D4A1A603A680123134005D000F060F81A4BFA681A6005E0184BFA685E
:401F80001A60184B02221A60104B1B68072B03D8154B04221A6009E0144B144A1268802149000A431A60104B08221A600B20FFF7E9FD7B69181CBD4606B080BD8401002031
:401FC0006400074094010020A4010020A0010020980100209C010020000F0740170300004002074068000740C80F07406000074080B582B000AF0B20FFF7DAFD0B4B1B8811
:402000009BB27B600A4B1B78DAB220231340DBB2002B03D07B68042213437B600B20FFF7B1FD7B68181CBD4602B080BD940100208401002080B582B000AF264B1B687B6092
:40204000C04600F051F8031C002BFAD0002000F059F8214B204A1168204A0A401A60204B1F4A1268520052081A607A682023134011D0002000F046F80A20FFF7DDFD0120F9
:4020800000F040F8C04600F063F8031C002BFAD00A20FFF7D1FD002000F034F80A20FFF7CBFD104B01221A600D4B0D4A1268802109060A431A60084B074A1168074A0A4031
:4020C000E02109030A431A60012000F01BF8BD4602B080BD6400074000000140FFFFF0FF000007406800074080B500AF044B1A68202313405B09DBB2181CBD4680BDC04671
:402100000400044080B584B000AF021CFB1D1A700E4B1B68DAB23B1C0F3310218A431A70FB1D1B781B01DAB210231340D9B23B1C0F333A1C0F3212780A431A70034B3A1C5D
:402140000F3212781A60BD4604B080BD0000044080B500AF044B1A68102313401B09DBB2181CBD4680BDC0460400044080B500AF00F028F8BD4680BD80B500AF054B054A7D
:402180001268802109060A431A6000F017F8BD4680BDC0460000064080B500AF064B1B78002B04D1FFF7E2FF034B01221A70FFF7E3FFBD4680BDC0467401002080B500AF72
:4021C000BD4680BD80B500AF174B184A1A60184B00221A60174B01221A60174B174A1A60174B07221A60174B00221A60164B01221A60164B114A1A60154B00221A60154BAF
:4022000000221A60144B00221A60144B00221A60134B00221A60134B00221A60124B00221A60BD4680BDC046000006400B00000240000640480006400003064007000080A2
:402240000403064010030640440006400002064004020640880E0640C80E0640480F0640080F0640C80F0640880F064080B584B000AF78600023FB6009E07A68FB68D31827
:402280001B78181C00F082FAFB680133FB607A68FB68D3181B78002BEFD1BD4604B080BD80B582B000AF00233B60C34B1B68002B02D0C14B1B689847C04B1A680123134083
:4022C00002D0BF4B00221A60BE4B1B78DAB220231340DBB2002B3CD0BB4B1A6880235B0013400AD0B94B1B889BB2C022920013439AB2B64B1A8001233B60B34B1A68012329
:4023000013400AD0B14B1B889BB29022920013439AB2AE4B1A8001233B603B68002B18D0A84B1B78DAB201231340DBB2002B01D0012300E00223A54A128892B291B21A1C15
:402340000B1C13439BB29AB2A04B1A809D4B00221A709C4B1B78DAB220231340DBB2002B00D1ACE1984B1A68102313401CD0984B10221A60934B1B78DAB201231340DBB215
:40238000002B01D0012300E00223904A128892B291B21A1C0B1C13439BB29AB28B4B1A80884B10221A70C0E1864B1B78DAB208231340DBB2002B29D0834B1A68022313402A
:4023C0000ED0834B02221A60804B1B889BB28822920013439AB27D4B1A8001233B6015E0784B1B78DAB201231340DBB2002B03D0744B25221A7009E0724B24221A70754B3A
:402400001B68002B02D0744B10221A606D4B1B78DAB204231340DBB2002B00D113E1694B1B78DAB201231340DBB2002B5CD06B4B1A680823134034D0694B1A68694B196890
:402440000F231940684B1B68CB18D31A7B607B68082B02D908237B600DE07B68002B0AD1624B624A1168624A0A401A6008237B6001233B6011E010E05E4B1A685A4B1B68E8
:40248000D2185D4B1B68DBB21370574B1B685A1C554B1A607B68013B7B607B68002BEBD11EE04E4B1A680423134019D0514B1A684D4B1B68D218504B1B68DBB213704A4B1C
:4024C0001B685A1C484B1A60474B1A68444B1B689A4203D2494B04221A6001E001233B60474B484A1A60AEE0374B1A680223134032D0374B02221A60434B1A68434B196842
:402500000F231940414B186880231B02034001D0012300E00023CB18D21A3B4B1A603A4B1A683B4B1A60294B1B889BB28422920013439AB2254B1A80364B364A12688021CF
:4025400049020A431A60334B324A1168324A0A401A6001233B6076E0304B1A681023134066D015E0284B1A681A4B1B689A420ED22B4B2C4A1168244A12688A181278D2B23D
:402580001A60214B1B685A1C1F4B1A6000E005E01E4B1A680F231340082BE3D11A4B1A680C4B1B689A4202D10B4B40221A601E4B1E4A1A6047E0C046700100208C0E0740B0
:4025C000880E0740840100200C0F074094010020000F074090010020880F0740CC0F0740A001002008030740A401002060000740FFFEFFFF980100204003074068000740CF
:40260000C00F0740ED0F000088010020080207408C01002004020740FFFFFEFF8C0F074040020740A8010020800F0740F30700003F4B1A684023134005D03E4B1A683E4B6A
:402640001A6001233B603B68002B6ED03B4B3B4A11683B4A0A401A603A4B00221A603A4B00221A60394B1B78DAB202231340DBB2002B19D0364B1B78DAB201231340DBB2A6
:40268000002B01D0092300E00A23324A128892B291B21A1C0B1C13439BB29AB22D4B1A802B4B60221A7040E02B4B2C4A116820220A4001D0182200E010221A6035E0244B3C
:4026C0001B78DAB210231340DBB2002B2DD1244B234A1268520052081A601D4B10221A70164B164A11681F4A0A401A60134B134A11681D4A0A401A60124B00221A60124BC3
:4027000000221A60194B1A4A1A601A4B1A4A1A601A4B1B4A1A601B4B1B4A1A60104B104A1268802109060A431A60BD4602B080BD8C0F0740880100208C0100206000074078
:40274000FFFEFFFFC80F0740880F07409C0100208401002094010020680007406400074000000740FF5FFFFFFFFCFFFF800F0740ED0F0000C00F0740F3070000400F0740DD
:40278000FF0F0000000F07401703000080B582B000AF7860C046064B1A680F231340082BF9D0044B7A681A60BD4602B080BDC0460802064040020640002934D00123002265
:4027C00010B488422CD301242407A14204D2814202D209011B01F8E7E400A14204D2814202D249005B00F8E7884201D3401A1A434C08A04202D3001B5C0822438C08A04236
:4028000002D3001B9C082243CC08A04202D3001BDC082243002803D01B0901D00909E3E7101C10BC7047002801D00020C04307B4024802A14018029003BDC04619000000A8
:402840000029F0D003B5FFF7B9FF0EBC4243891A1847C0467047C046014B18687047C0464C01002070B50E4B0E4D0024ED1AAD101E1CAC4204D0A300F35898470134F8E761
:4028800000F064FC084B094D0024ED1AAD101E1CAC4204D0A300F35898470134F8E770BD5831000058310000583100006031000010B50023934203D0CC5CC4540133F9E71D
:4028C00010BD031C8218934202D019700133FAE7704700000EB400B59CB01DAB04CB822202A992008A810A4A02908A604A6101225242CA81074A086110681D9A019300F026
:402900006BF8029A002313701CB008BC03B01847FFFFFF7F4C010020F0B58D6885B0071C0C1C03920193AB4245D390228B89D20013423DD062690326564309692068F20F9D
:40294000401A96190290021C0198013212187610964200D2161C381C5A050FD5311C00F021FB051E13D0029A2169FFF7A1FFA289184B134080221343A38111E0321C00F068
:4029800065FB051E0CD1381C216900F0C3FA0C233B60A389402213430120A381404217E0029B2561ED1825606661019DF61AA6600198A84200D2019D2A1C2068039900F04B
:4029C00090FAA2680020531BA36023685D19256005B0F0BD7FFBFFFFF0B59FB0039005938B890E1C171C19060FD53269002A0CD1402100F0D7FA30603061002803D1039942
:402A00000C230B60C9E04023736106AD00236B6120236B763023AB763C1C2378002B03D1E21B029211D003E0252BF9D00134F4E70398311C3A1C029BFFF76EFF013000D132
:402A4000A6E06969029A8B186B612378002B00D19EE0012252426A606A4600235B3201342B60EB60AB601370AB654E4F2178381C052200F02BFA002807D0C71B2B680120F9
:402A8000B840184328600134EFE72B68D90603D56A4620215B3211701A0703D56A462B215B32117022782A2A01D0099B0EE0059A111D12680591002A01DB099204E052429D
:402AC000EA60022213432B60013409E02278303A092A04D80A214B4301349B18F6E7099323782E2B18D163782A2B09D1059B02341A1D1B680592002B0DDA01235B420AE071
:402B0000013400232278303A092A04D80A214B4301349B18F6E70793234F2178381C032200F0D4F9002806D0C71B2B684020B84018432860013421781C480622671C2976A7
:402B400000F0C4F9002812D0194B002B06D1059B0722073393430833059314E005AB00930398291C321C134B00E000BF07E005AB00930398291C321C0E4B00F091F804906C
:402B80000499013104D06A69049953186B6143E7B3895A0601D40B9801E0012040421FB0F0BDC046163100001C310000203100000000000019290000F7B5151C01930A697C
:402BC0008B68061C0C1C934200DA131C221C2B6043321278002A01D001332B602068800602D52B6802332B60216806270F401FD0231C43331B785A1E9341226892061FD562
:402C0000E11840313020C870211C5A1C45310978A21840320233D17012E0221C301C019919320123089FB847013011D0009F01370097E0682968009F431A9F42EDDBD7E76F
:402C4000221C301C01994332089FB847013002D10120404223E0206806212B68E26801400025042903D1D51AEB43DB171D40A26823699A4201DDD31AED1800270097009F6D
:402C8000AF420BDA221C301C01991A320123089FB8470130DCD0009F0137EFE70020FEBDF0B50D1C8BB0433506920590079304950B7E0C1C109A6E2B00D1A7E011D8632BFB
:402CC00022D009D8002B00D1B0E0582B00D0C0E045310B707B4D4EE0642B1CD0692B1AD0B7E0732B00D1A5E009D86F2B29D0702B00D0AEE00E68202333430B6036E0752B5A
:402D00001FD0782B32D0A4E013680D1C191D423511601B689FE0216813680E0603D5191D11601E6805E04806F9D5191D116000215E5E644B002E3BDA049D2D2276422A70E1
:402D400036E0216813680E0603D5191D11601E6804E04806F9D5191D1E881160594B227E039308276F2A1ED00A271CE0231C78214533554D197011682368081D039510606A
:402D80001E0601D50E6802E05806FBD50E88D90702D52022134323601027002E03D1226820239A432260231C002243331A7001E003930A276368A360002B03DB2568042233
:402DC00095432560002E02D1049D002B0ED0049D301C391CFFF734FD0398013D435C301C2B70391CFFF7E8FC061EF1D1082F09D12168C90706D5626823699A4202DC013D5B
:402E000030232B70049E731B23612AE0086813684969050604D5181D10601B68196005E04606F8D5181D10601B68198000232361049D16E01368191D11601D68281C00F0EC
:402E40003DF963682061984200D923612069606004E0251C42352B7001232361049E00233370079E05980096211C09AA069BFFF7A3FE013002D10120404221E02A1C05987E
:402E800006992369079DA8470130F4D02668B60705D4099BE068984212DA181C10E00025E0680999431A9D42F3DA221C0598069919320123079EB0470130DCD00135EFE7DF
:402EC0000BB0F0BD2731000038310000C9B28218904204D003788B4202D00130F8E70020704770B5814201D300230CE08C18A042FAD28518131C013B0BD351426618F65C87
:402F00006918CE54F7E7934203D0CC5CC4540133F9E770BD30B5002940D004390B68002B00DAC9181E4A1368141C002B02D14B60116033E099420FD208680A189A4205D1F3
:402F400013685268C01808604A6000E04B60216024E08A4203D8131C5A68002AF9D11D685C198C420BD10968691858181960904214D114685268091919605A600EE08C4219
:402F800002D90C23036009E008680C18944203D114685268001908604A60596030BDC0468001002070B50323CD1C9D430835061C0C2D01D20C2501E0002D3FDB8D423DD318
:402FC000204B1C681A1C211C002913D00868431B0DD40B2B02D90B60CC181EE08C4202D1636813601AE0486860600C1C16E00C1C4968E9E7144C2068002803D1301C00F026
:403000004BF82060301C291C00F046F8431C15D0C41C03239C4384420AD12560201C0B300722231D9043C31A0BD05A42E25008E0211A301C00F030F80130EED10C2333604D
:40304000002070BD800100207C010020F8B5061C0C1C151C002904D1111CFFF7A3FF041C18E0002A03D1FFF755FF2C1C12E000F02CF8A8420ED2301C291CFFF793FF071E24
:4030800007D0211C2A1CFFF713FC301C211CFFF741FF3C1C201CF8BD38B5074C0023051C081C2360FEF71CFC431C03D12368002B00D02B6038BDC046AC0100200023C25C24
:4030C0000133002AFBD1581E704704390B68181F002B02DAC8581B18181F704700000000636F6E74726F6C2033203A25582020202020200025643A2532643A2564200A0DE7
:40310000000000000400000000300F40000400400F4000044300232D302B2000686C4C00656667454647003031323334353637383941424344454600303132333435363705
:40314000383961626364656600000000F8B5C046F8BC08BC9E467047C1130000C9190000F8B5C046F8BC08BC9E4670479913000080310000D000002080000000600000001A
:4031800000000000B0010020C0F1FF0F00366E01C05D0000180000000000E02E00000000000000000000000000000000000000000000000000000000000000001431000052
:4031C000000000000000000000000000000000000000000000000000000000000000000000000000000000000000000000000000000000000000000000000000EC000020C3
:40320000000000000000000000000000000000000000000000000000000000000000000000000000000000000000000000000000000000000000000000000000000000008E
:40324000000000000000000000000000000000000000000000000000000000000000000000000000000000000000000000000000000000000000000000000000000000004E
:40328000000000000000000000000000000000000000000000000000000000000000000000000000000000000000000000000000000000000000000000000000000000000E
:4032C00000000000000000000000000000000000000000000000000000000000000000000000000000000000000000000000000000000000000000000000000000000000CE
:407FC0004B111100002100000000210000000000000001000000000000000000000000000000000000000000000000000000000000000000000000000000000000000000D1
:0200000490303A
:02000000AEF55B
:0200000490402A
:20000000FFFFFFFF00000000000000000000000000000000000000000000000000000000E4
:0200000490501A
:0C000000000204C81193110004D7C0884E
:0200000490600A
:0100000001FE
:00000001FF