:400000000010002011000000550300005503000008B500F07DFA00F0A5F90000F8B572B680220021D200444801F04BF980224348D200002101F045F90022141C4049FF25A4
:4000400057580C313E1C081C6300AE433D4001336419CB186100013141188B4206D0581E00781D78801905700233F6E704320C2AE4D1C022334B92041A6099220025324B91
:4000800002211A60314B324A1D60324B3C241D6099231B041360304A304813608022304B92051A602F4A304B1A60304A13780B4313700378A343283C234303701620137850
:4000C0002B4C0343137080222A4B40181A608022294BD2031A604022284B1A60C022284B52031A603122274B1960274B1A608022264BD202196023681343236000F07EFFA4
:400100002268234B13402360224A234B1A601022224B1A60224B92181A608022214B12061A60214A214B25601A60214A214B1A60214B1D60F8BDC04600300F4000400F407A
:40014000E012000004000140100001400C00014000500F400803044010500F4001700F4018500F40100001002001054000700F4000010B400000044008000440000104403F
:4001800008010440000404400804044018040440FFFFFBFF0600008004010B40080202402002024008010B401000008000000240AF040080400002400C020B4010B5064C31
:4001C0002378002B07D1054B002B02D0044800E000BF0123237010BD5801002000000000DC12000008B5084B002B03D00748084900E000BF07480368002B00D108BD064B25
:40020000002BFBD09847F9E700000000DC1200005C010020D00000200000000010B562B600F096FD00280ED16524012000F0C6FE00F08EFD002806D1013CE4B2002CF4D1AB
:400240004022034B1A6000F075FD00F079FBFEE7C000002008B500F0B5FB00F0FFFB00F06BFC08BD08B500F0BBFB08BD70B50D1C161C0024034BC9B21C8000F051FC358043
:40028000201C70BD74010020F0B50A26171C00245E4387B0039005912D4DB4421ADA00F0CFFB80B228802B88002B0DD002202C8800F084FE00F0C4FB80B228802B88A4B286
:4002C000A342F3D8002306E00120013400F076FEA4B2E1E70523002401933C802B88002B32D02E883B88B6B2F318059A9BB23B80934220D2A3199BB20293029B9C4209D0A5
:40030000631C9BB20493039B1C1900F07FFB2070049CF2E772B62B889E1BB6B22E8062B6039B029A9B18013B1B78172B0AD0052000F044FE06E09E1B3E8000F08FFB052324
:40034000019301E0029CC9E7019807B0F0BDC0467401002008B500F07FFF03680C2B00D1FEE7FEE770B51049104B01394A1C15D000221E685C689D68A018AA4203D0B0586C
:40038000A0500432F8E7021CDC68151AA54202D0002520C2F9E710330139E7E700F062FFFFF73CFFFEE7C046010000005813000008B500239A000D49032B01D80C498958D6
:4003C0000C4801338150302BF4D1FFF727FE0022094B1A60094B1A68002A00D11A6080220121D20513680B43136008BD550300000000000000000020C8000020C000002052
:40040000004770B5051C0E1C141C002802D0002000F0C6FD0020002C05D0013CAB191B5DC018C0B2F7E770BDF0B57F23051C9D432E1C2B1CA3B00191C40980361A7894466C
:40044000614602AA571BF9540133B342F6D17F2318406B461B79111C1354A0B200F080FC23B0F0BD013808B50B282FD8C901494200F0DEFE06080A0C0E10141216191B2046
:40048000174B13E0174B16E0174B0AE0174B12E0174B0BE0174B09E0174B02E0174B00E0174BC91816E0174B05E0174BC9180878C0B213E0154BC9180A7848788B780002A1
:4004C0001B041843CB7810431B0606E0002000F067FD00210B7848780002184308BDC046C07F0000C17F0000C57F0000C97F0000D07F0000D17F0000D67F0000D27F000095
:40050000D47F0000D87F0000DC7F0000E07F00000C4B10B51A68102313400B4A00D113601368802B0DD100240220211C1460FFF799FFA04205D0211C0220FFF793FFFFF77D
:400540005FFF10BD00030B40C0000020F8B5041C0320211CFFF786FF211C061C0420FFF781FF211C071C0620FFF77CFF0025012828D00320211CFFF775FF0136F601F7193C
:400580002E1C0130C001B84209D203785A1ED2B2FD2A00D801265D19EDB20130F3E70120211CFFF75FFF6D42EBB20625834209D1002E07D0044BE4016042C0180121FFF7DA
:4005C00033FF0025281CF8BDD17F0000F0B5BC4CA544FFF73FFE62B6002701970297962128AC05AD201C49002A1CFF23FFF74CFE0028F4D12A88062A00D85CE12178042314
:40060000012951D1E678A57836022E43F11D914200D952E196225200914200D94DE1A5196A792979AD799446172D3DD1F3189BB2002B08D0BEADA34AED18AD182D78013B86
:40064000401980B2F3E7634640421A0280B20A430823824228D156E0342B00D0BFE0019B012B00D027E1032E00D024E173A80021802200F026FE8027972173ABD819F21E4D
:4006800004ABBE19C918B6B200F012FE832E00D00BE1A0796379000203431F1EFF2F00D820E1012301930A23002428A801214370230AC370002304AA06320170211D148023
:4006C000847089B2002909D0BEAD7E4E6D18AD192D7801395B199BB289B2F3E7BEA97A4D09195B424D199BB22B70784D1B0A4D192B70774B0734CB1817211970A1B29623BF
:40070000FFF7B4FD6BE763782579181C31380A282ED9704A1468002C26D0019A012A25D108AD04AA13725681002129AE0C22281C079600F0C6FDAE6006A8291CA0472623B3
:40074000AC88FF339C4202D9AB68B34207D0AA68002A01D1002C04D12B68DBB2A5E70E23A2E70E23141CA0E705239EE705239BE700F068FD0B001800CFFF72FF3B00CFFF07
:400780004000520072FF62008E00019B012B00D091E0002E00D08EE0301CFFF7D7FE4342434171E0019B012B00D084E0012E00D081E0002D7FD1484B1B681B68DA0BD2B285
:4007C000DB09DBB2002A01D080235B0023711B0A6371FF23A3710023E371042465E7019B012B68D1022E66D946E7019B012B62D10027F4E6019B012B5DD12C33BC19FF33EC
:400800009C425ADC73ABD81929A9321C00F050FD0023A7B21C1C48E7002E4CD108AB191C2E4A371C11CA11C129AA03CB03C2012308240193331C38E7019B012B3BD1032EED
:4008400039D1A679637936021E43FF2E00D92AE729027118C90100208022FFF7D2FD0390002D0FD1FF2E0DD1291C0520FFF7FAFD039B291C1B1A0620DEB2FFF7F3FD331ABB
:40088000DBB20393039B5B422371002301240CE70020FFF75BFE002802D18022104B1A60FFF7E0FC00F07EFB05E001230027019302333C1CF9E60423F6E60323F4E6C046B6
:4008C00004FDFFFFA7FDFFFFACFDFFFFADFDFFFFAEFDFFFF78010020D4000020FC120000C0000020154B1B681A68D3099BB2520601D001339BB22D027D19ADB29D4218D3BE
:40090000029B002B0AD1191C802208A800F0D9FCFF2008A900F024FA01230293281C73A900F01EFA002804D10123071C0193031CBFE70123002701930933BAE7D40000207C
:4009400038B50020FFF702FE431E98410624134D40422B6804401A680020C03AC021FFF750FD6B681B78181AC0B2984203D12B681B68002B02D1002000F012FB084B1968DA
:400980001A1C402901D0002C03D000231360FFF71DFE80221A6000F005FB38BDD4000020C00000208021064A08B5136809060B4313600A2000F0D6FA00F058F908BDC0465D
:4009C0000000064010B5054C2378002B03D100F0DFF801232370FFF7E5FF10BD7C01002008B50A2000F0C8FA00F052F9054A0A2013685B005B0813600022034B1A6000F06C
:400A0000C5FA08BD00000640880F0640094B0A491A680B6800209A420AD00B685A1C403B581E83415B421A40044B985C0A60C0B27047C0462002002098010020DC01002034
:400A4000044B1868044B1A681B68904200D24130C01A7047200200209801002008B50A2000F08AFA0B4B80211A680B4B49021A6000220A4B0A201A70094B1A680A431A60FB
:400A80001968084A0A401A60074A084B1A6000F069FA08BD98010020200200201D02002004030640FFFFFEFFED0F0000C00F064030B5144A144C11682368994208D1134B1D
:400AC00019680F230B40082B02D0114B186017E01368591C3F3B5D1EAB415B42194023689942FCD002240B4BC0B21C600A4B58540A4B11601A68224202D11A6822431A60E4
:400B000030BDC04694010020900100200802064040020640800F06409C010020880F064038B5041C4518AC4204D02078FFF7C0FF0134F8E738BD000008B50A2000F01CFAA6
:400B400002210C4B0A201A680B4B1A600B4A13688B43802113600A4B49021A680A431A601968084A0A401A60074A084B1A6000F0F9F908BD9001002094010020880F064045
:400B800004020640FFFFFEFFF3070000800F064010B51E4A00241E4B07201A6001221D4B1D491C601D4B1A601D4B0B601D4908601D4903300C601D490A601D4A13601D4BBD
:400BC0001C6000F0D9F90A20032100F0ADF91A490A2000F09DF90422184B1C60184B1C60184B1C60184B1C60184B1A60184B1C601A68184B1A80184B1C60184B1C60184BC2
:400C00001C70184B1C60184B1C6010BD0B0000020000064040000640000306404800064007000080040306401003064044000640000206400402064051110000880E064064
:400C4000C80E0640480F0640080F0640C80F0640880F06408401002020020020980100201D0200209401002090010020F021054A13688B4360390B431360034B1A88034BDE
:400C80001A6070471000014084010020880F0640F021064A13688B431360054B1A68E423DB001340034A13807047C04610000140880F064084010020842280210D4BD20427
:400CC0001A601A6849020A431A600B490B4A0A6019681960C3210A4B890019600021094B1960094B1C311960084B1A60084A094B1A60704700010540080105401027000027
:400D000024010540380105402801054014010540881300000C01054008B500F00FFA0121034A13680B43136000F00CFA08BDC0460000054010B5054C2378002B03D1FFF709
:400D4000BBFF01232370FFF7E7FF10BD88010020024B18680006C00F7047C04604000440F0B50024ADB008940994FF2800D9AEE0A14200D1ABE0039080220CA800F098FA72
:400D80000222211C01940AAB9000C058002802D00918044301920132222AF4D1002903D1002C00D096E000E0002402947F224E494E4D0A914E4F5A604E4A2B603A60C04616
:400DC0002B6805911B0F06920F2B02D12B68DBB205E02A680023120F0A2A00D02B680893089E002E00D07CE000F0A8F9424A434B116809961960089B04900792002B19D1CD
:400E00003F4A03990A920A9A09040A430AA90A9229603C49354A3960C0462968090F0F2902D11368DBB204E01168090F0A2900D013680893089E002E3DD1002C3BD00CA861
:400E4000311C802200F03DFA019B029A0AAC9B001A51059B069A0A937F2363602C60234B3A60C0462A68120F0F2A02D11E68F6B204E01A68120F0A2A00D01E680896089B4D
:400E8000002B18D1204A03990A920A9A08041F4910430A90154A2C603960C0462968090F0F2902D11368DBB204E01168090F0A2900D013680893099B002B04D10F4A079906
:400EC00012680A600993049800F03CF909E00423089306E0019A0124920098589950029064E708982DB0F0BDB6D7000008000040040000400400008008010B408C01002050
:400F0000B6D8000005000080B6D90000060000801F2800D901BE034B8000C318186819607047C0464000002038B5041C0D1E032D00D901BE1F2C00D901BE00F0FFF8A30876
:400F4000074A9B009B180322144094400634A240A540196891432943196000F0F3F838BD00E400E01F2318401E3B8340181C014B1860704700E100E01F2318401E3B8340DA
:400F8000181C014B1860704780E100E01F2318401E3B8340181C014B1860704780E200E001BE7047034A044913689BB20B4313607047C0460CED00E00400FA0510B5041C83
:400FC0008022074B1202944205D9586800F0ACF8044BE418F4E79868604300F0A5F810BDDC0000200080FFFF08B5034B1B7B584300F09AF808BDC046DC000020F0B5051CF9
:4010000087B000F09BF8EB1E049003932D2B5CD8314B1B789D4204D8304B1C78304BE4B21EE0304B1B789D4204D82F4B1C782F4BE4B215E02E4B1B789D4204D82D4B1C78A0
:401040002D4BE4B20CE02D4B1B789D4204D82C4B1C782C4BE4B203E02B4B1C782B4BE4B21B78039ADBB20193294B2A4F9A5C059302922F2A04D92A2D02D919263E6008E012
:401080003F233E681E40029BB34205D2214B029A1A60052000F048F81C4B1F4AED182B780520DBB213601D4B019A1C601C4B1A60FFF79AFF029BB34208D9059B039A052029
:4010C0009B5C3B6000F030F800E001BE049800F039F807B0F0BDC046C0F1FF0FC1F1FF0FC2F1FF0FC3F1FF0FC4F1FF0FC5F1FF0FC6F1FF0FC7F1FF0FC8F1FF0FC9F1FF0FDD
:40110000CAF1FF0FCBF1FF0FCCF1FF0FCDF1FF0F041300002CFF0B4028FF0B401CFF0B4020FF0B40000000000230800804D0C0460138FDD1C046C046C0467047EFF31080E0
:4011400072B6704780F310887047C046C046C04608B5264B1B68002B00D09847244B1B685B071CD523490B685A1C403B581E83415B421A40204B1868204B1B68824203D17A
:4011800020221F4B1A7003E01E48DBB283540A601D4B1B681B07E5D104221C4B1A601C4B1B689B0721D51B4B1B491A680B689A4213D00B685A1C3F3B581E83415B421A4084
:4011C000164B17489B5CDBB20360164B0A601A680F231340082BE6D104E00221124A13688B4313600222114B1A6008BD80010020CC0F064020020020980100204003064068
:401200001D020020DC01002008030640C00F06408C0F064094010020900100209C0100204002064008020640880F0640800F064002B4714649084900095C49008E4402BC39
:401240007047C04603B47146490840004900095E49008E4403BC7047014B18687047C046500100200E4B70B500251E1C0D4CE41AA410A54204D0AB00F35898470135F8E7EA
:4012800000F058F8084B00251E1C084CE41AA410A54204D0AB00F35898470135F8E770BD40130000401300004013000048130000002310B5934203D0CC5CC4540133F9E72C
:4012C00010BD031C8218934202D019700133FAE77047000000140000680000000000000001330F4003410F4004430F40E61062048E04D84018808C40C608E6089311C804AE
:4013000011320101030405060708090A0B0C0E0F101112131415161718191B1C1D1E1F2021222325262728292A2B2E2F3031323334354300F8B5C046F8BC08BC9E4670476F
:40134000E5010000B1030000F8B5C046F8BC08BC9E467047BD01000068130000D000002088000000D000000000000000D4120000D8120000010000000000E02EC05D000090
:401380001800000000366E0100000000000000000000000000000000000000000000000000000000000000003213000000000000000000000000000000000000000000002B
:4013C00000000000000000000000000000000000000000000000000000000000000000000000000000000000F00000200000000000000000000000000000000000000000DD
:4014000000100020111400007D2000007D20000080B500AF024B83F3088800F061FEC0460010002080B500AF154B154A12688021C9020A431A60302000F03EFF114B124ADC
:401440001A60124B30221A60114B20221A60114B10221A60104B802212061A60084B8022D2021A600D4B0E4A1A600E4B0E4A1A600E4B0F4A1A600F4B00221A60BD4680BD20
:4014800000010B4004010B4006000080080202400C0202403002024008010B400000024017000080400002401D00008080000240220000800C020B4080B586B000AF72B6AF
:4014C0001723FB1800221A7026E01723FB181A78131C5B009B185B00614A9B183B613B691A78597809020A43997809040A43DB781B061343191C3B691A795B791B02134335
:401500009BB2081C191C00F071FE1723FB181A781723FB1801321A701723FB181B78012BD3D91723FB1800221A7038E01723FB181A78131C9B009B185B004A4A9B18FB609B
:40154000FB681A78597809020A43997809040A43DB781B061343BB60FB681A79597909020A43997909040A43DB791B0613437B60BA1CFB68197A5B7A1B020B431380BB1C55
:401580001B88B9687A68081C111C1A1C00F03EFE1723FB181A781723FB1801321A701723FB181B78002BC1D02F4A304B101C191C00F03EFE2E4BEE2212041A602D4B2E4AC3
:4015C0001A602E4B99221A602D4B992212041A602C4B992212041A602B4B992212041A602A4BE42292051A60294A294B1B78DBB202210B43DBB21370264A264B1B78DBB268
:401600003C218B43DBB214210B43DBB21370204A1F4B1B78DBB216210B43DBB213701E4B30221A601D4B1E4A1A601E4BDB2252001A601D4BD0221A601C4B1D4A1A601D4BA1
:4016400002221A601C4B31221A601C4B02221A60FFF7E8FE00F02CFEBD4606B080BDC046F03E0000FC3E0000083F0000243F0000000001400C00014000EE0333100001408C
:4016800000500F4020500F4030500F4038500F4000700F4001700F4000000440080004403640020008020440000304400803044080EDD8000004044008040440180404407E
:4016C00010B5064C2378002B07D1054B002B02D0044800E000BF0123237010BD50010020000000003C3E000008B5084B002B03D00748084900E000BF07480368002B00D18B
:4017000008BD064B002BFBD09847F9E7000000003C3E000054010020D000002000000000F0B5ABB006AF00F0B9FF01F041FA62B687230822BA18D418022000F087F9031C1B
:401740002370872308229446BC4463441B781B09DBB20A2B4ED0012001F0F6FAFA239B00181C00F04BFF002001F0EEFAFA239B00181C00F043FF012001F0E6FAFA239B0001
:40178000181C00F03BFF002001F0DEFA872308229446BC4463441B789BB2181C582100F045FC7F2308229446BC446344A0221A707F2308229446BC4463441B780220191CFF
:4017C00000F07CF987230822BA18D418022000F03DF9031C2370872308229446BC4463441B789BB2181C582100F020FC934B181C01F06AFA872308229446BC4463441B78BB
:401800000F22134031D0012001F078FAFA23DB00181C00F0F3FE002001F070FA872308229446BC4463441B789BB2181C582100F0FDFB0220A02100F041F987230822BA189A
:40184000D418022000F002F9031C2370872308229446BC4463441B789BB2181C582100F0E5FB774B181C01F02FFA742308229446BC44634411229A71742308229446BC44E0
:40188000634408225A71742308229446BC4463440822DA70742308229446BC44634402221A71742308229446BC44634416229A70742308229446BC44634432225A7074236A
:4018C00008229446BC4463442D221A706C2308229446BC446344181CFF21002200F0C6F90023802208218C46BC4462441360742308229446BC446344181C00F085F97E23A7
:401900000822BA18D41874230822BA18D2186C2308218C46BC446344101C191C00F0CCF9031C23707E2308229446BC4463441B78002B0AD1012001F007FAFA239B00181C65
:4019400000F05CFE002001F0FFF97D230822BA18D418022000F07AF8031C2370802308229446BC4463441B68181C192101F01CFE0B1E55D17D2308229446BC4463441B78DF
:4019800050220821791889182E4A081C111C1A1C01F054FE742308229446BC4463449B797B6074210823FB185B185B793B6074210823FB185B18DB781E1C74210823FB188C
:4019C0005B181B791D1C74210823FB185B189B781C1C74210823FB185B185B78181C74210823FB185B181B78191C0C23FA18164B00960195029403900491101C191C7A68EC
:401A00003B6801F01BFE502308229446BC446344181C01F059F90C23FB18181C01F054F9802308229446BC4463441B680133802208218C46BC446244136058E7403E000038
:401A4000683E00009C3E0000B03E000080B584B000AF021CFB1D1A700C23FB1800221A700C23FB18FA1D12781A700823FB1800221A700C23FB186820191C0122022300F0A4
:401A80009FFEC04600F0C0FF021C02231340F9D00823FB186820191C0122012300F01EFFC04600F0B1FF021C01231340F9D00823FB181B78181CBD4604B080BD80B584B0C0
:401AC00000AF021CFB1D1A70BB1D0A1C1A700C23FB18FA1D12781A700C23FB18BA1D12785A700C23FB186820191C0222002300F067FEC04600F088FF021C02231340F9D09E
:401B0000BD4604B080BDC04680B500AF0320FFF79DFF031C181C00F057F9031C181CBD4680BDC04680B500AF0420FFF78FFF031C181C00F081F9031C181CBD4680BDC04604
:401B400090B583B000AFFC1D0520FFF77FFF031C2370FB1D1B78181C00F0A6F9031C181CBD4603B090BDC04690B583B000AFFC1D0620FFF76BFF031C2370FB1D1B78181CB9
:401B800000F092F9031C181CBD4603B090BDC04690B583B000AFFC1D0720FFF757FF031C2370FB1D1B78181C00F0B6F9031C181CBD4603B090BDC04690B583B000AFFC1DCF
:401BC0000820FFF743FF031C2370FB1D1B78181C00F0BCF9031C181CBD4603B090BDC04690B583B000AFFC1D0920FFF72FFF031C2370FB1D1B78181C00F0E0F9031C181CB9
:401C0000BD4603B090BDC04680B582B000AF7860FFF7E6FF031C1A1C7B689A71FFF7CCFF031C1A1C7B685A71FFF79EFF031C1A1C7B68DA70FFF7ACFF031C1A1C7B681A7152
:401C4000FFF77EFF031C1A1C7B689A70FFF76AFF031C1A1C7B685A70FFF756FF031C1A1C7B681A70BD4602B080BDC04680B582B000AF7860081C111CFB1C021C1A70BB1C74
:401C80000A1C1A707B68FF229A717B68FF225A717B68FF22DA707B68FF221A717B68FF229A707B68FA1C12785A707B68BA1C12781A70BD4602B080BD80B584B000AF7860AF
:401CC00039600F23FB1800221A707B689A793B689B799A420AD03B689B79FF2B06D00F23FB181A780F23FB1801321A707B685A793B685B799A420AD03B685B79FF2B06D00D
:401D00000F23FB181A780F23FB1801321A707B68DA783B68DB789A420AD03B68DB78FF2B06D00F23FB181A780F23FB1801321A707B681A793B681B799A420AD03B681B7980
:401D4000FF2B06D00F23FB181A780F23FB1801321A707B689A783B689B789A420AD03B689B78FF2B06D00F23FB181A780F23FB1801321A707B685A783B685B789A420AD0B9
:401D80003B685B78FF2B06D00F23FB181A780F23FB1801321A707B681A783B681B789A420AD03B681B78FF2B06D00F23FB181A780F23FB1801321A700F23FB181B78181C58
:401DC000BD4604B080BDC04680B584B000AF021CFB1D1A700F23FB1870221A700E23FB180F221A70FB1D0F22BA181B7812781340DAB20D23FB1812091A700D23FA180D2340
:401E0000FB181B78191C8900CB18DB1813700C23FB18FA1D0E217918127809780A401A700D23FA180C23FB1812781B78D318DBB2181CBD4604B080BD80B584B000AF021C76
:401E4000FB1D1A700F23FB1870221A700E23FB180F221A70FB1D0F22BA181B7812781340DAB20D23FB1812091A700D23FA180D23FB181B78191C8900CB18DB1813700C2303
:401E8000FB18FA1D0E217918127809780A401A700D23FA180C23FB1812781B78D318DBB2181CBD4604B080BD80B584B000AF021CFB1D1A700F23FB1830221A700E23FB18DB
:401EC0000F221A70FB1D0F22BA181B7812781340DAB20D23FB1812091A700D23FA180D23FB181B78191C8900CB18DB1813700C23FB18FA1D0E217918127809780A401A7001
:401F00000D23FA180C23FB1812781B78D318DBB2181CBD4604B080BD80B584B000AF021CFB1D1A700F23FB180F221A700E23FB18FA1D0F217918127809780A401A700E235C
:401F4000FB181B78181CBD4604B080BD80B584B000AF021CFB1D1A700F23FB1810221A700E23FB180F221A70FB1D0F22BA181B7812781340DAB20D23FB1812091A700D238C
:401F8000FA180D23FB181B78191C8900CB18DB1813700C23FB18FA1D0E217918127809780A401A700D23FA180C23FB1812781B78D318DBB2181CBD4604B080BD80B584B080
:401FC00000AF021CFB1D1A700F23FB18F0221A700E23FB180F221A70FB1D0F22BA181B7812781340DAB20D23FB1812091A700D23FA180D23FB181B78191C8900CB18DB18E7
:4020000013700C23FB18FA1D0E217918127809780A401A700D23FA180C23FB1812781B78D318DBB2181CBD4604B080BD80B586B000AF021CBB1D1A807B1D0A1C1A707B1D5A
:402040001B780822B9180C4A081C111C1A1C01F0F5FABB1D1B881022B9180822BA18081C111C1A1C01F0EAFA1023FB18181C00F02BFEBD4606B080BDE83E000080B500AFAC
:4020800001F09EFA031C1B680C2B00D1FEE7FEE780B584B000AF78600F4B1A687B68D3181A1C0E4BD31A802B09DC0B4B1B68FB60094B1A687B68D218074B1A6007E001F002
:4020C0007FFA031C0C221A6001235B42FB60FB68181CBD4604B080BDD4000020B001002080B586B000AF224B7B61224B3B61204B7B6135E03B691B68FB603B695B68BB6068
:402100003B699B683B6000237B600CE0FB681A68BB681A60BB680433BB60FB680433FB607B6804337B607A683B689A42EED13B69DB683B6000237B6008E0BB6800221A604B
:40214000BB680433BB607B6804337B607A683B689A42F2D13B6910333B617B69013B7B617B69002BC6D101F031FAFFF7D9FAFEE7010000008841000080B582B000AF0023DF
:402180007B600FE07B68032B04D8134B7A689200D35800E0114B124A796889008B507B6801337B607B682F2BECD9FFF785F90D4B00221A600C4B1B68002B02D10A4B0022E3
:4021C0001A608023DB058022D205126801210A431A60BD4602B080BD001400007D20000000000020C8000020C000002080B582B000AF786039607A683B68101C00211A1CEC
:4022000001F013FABD4602B080BDC04680B584B000AFF860B9607A60F968BA687B68081C111C1A1C01F0F8F9BD4604B080BDC04680B586B000AF7860396000233B6100230F
:402240007B612FE07B699B007A68D3181B68BB600F23FB18BA681A70BB68FF229343BB6018E03B695B003A68D3181B781A1CBB68D318191C3B695B003A68D3185B780B70F9
:402280003B6901333B610F23FB181A780F23FB18013A1A700F23FB181B78002BE1D17B6901337B617B69062BCCD9BD4606B080BD80B500AFBD4680BD90B585B000AF78604B
:4022C0000C23FC1800F072FD031C23707B68022B00D8B4E07B68302B00D9B0E05E4B1B78DBB21A1E7B689A420AD35C4A0F23FB1812781A705A4A0E23FB1812781A703FE0B0
:40230000584B1B78DBB21A1E7B689A420AD3564A0F23FB1812781A70544A0E23FB1812781A702DE0524B1B78DBB21A1E7B689A420AD3504A0F23FB1812781A704E4A0E23BD
:40234000FB1812781A701BE04C4B1B78DBB21A1E7B689A420AD34A4A0F23FB1812781A70484A0E23FB1812781A7009E0464A0F23FB1812781A70454A0E23FB1812781A7020
:402380007B68DA1E0B23FB1841498A5C1A700B23FB181B782F2B0DD97B682A2B0AD93D4B19221A60052000F0F7FC0D23FB1819221A7007E0374B1B68DAB20D23FB183F2170
:4023C0000A401A700B23FA180D23FB1812781B789A4208D22F4B7A68033A2D498A5C1A60052000F0D9FC7B68284A9A180A23FB1812781A70284B0A22BA1812781A60274B18
:402400000F22BA1812781A60254B0E22BA1812781A60052000F016F90B23FA180D23FB1812781B789A4209D91A4B7A68033A18498A5C1A60052000F0AFFC03E002E00020B3
:4024400000F0D2F80C23FB181B78181C00F0B2FCBD4605B090BDC046C0F1FF0FC1F1FF0FC2F1FF0FC3F1FF0FC4F1FF0FC5F1FF0FC6F1FF0FC7F1FF0FC8F1FF0FC9F1FF0F4D
:40248000CAF1FF0FCBF1FF0FCCF1FF0FCDF1FF0FFC4000002CFF0B4028FF0B401CFF0B4020FF0B4080B584B000AF021C3960FB1D1A7080239B05FB60FB1D1B781F2B02D91F
:4024C000002000F091F8FB1D1B7810339B00FA68D3181B68BB60FB1D1B7810339B00FA68D3183A681A60BB68181CBD4604B080BD90B587B000AF021CFB1D1A70BB1D0A1CA9
:402500001A70BB1D1B78032B02D9002000F06CF8FB1D1B781F2B02D9002000F065F8FB1D1B7803221340DB0006337B611323FC1800F03CFC031C2370FB1D1B789B08DBB2DA
:402540009B00144A944663441B68FB607B6903229A40131CDA43FB681340FB60BB1D1A787B699A40131CFA681343FB60FB1D1B789B08DBB29B00074A94466344FA681A6035
:402580001323FB181B78181C00F014FCBD4607B090BDC04600E400E080B582B000AF021CFB1D1A70054BFA1D12781F210A40012191400A1C1A60BD4602B080BD00E100E0A3
:4025C00080B582B000AF021CFB1D1A70054BFA1D12781F210A40012191400A1C1A60BD4602B080BD80E100E080B582B000AF021CFB1D1A7001BEBD4602B080BD80B582B0D6
:4026000000AF786009E00C4B1B68181C00F0C4FB7B680A4A944663447B607A6880231B029A42F0D8064B1B687A685343181C00F0B3FBBD4602B080BDE40000200080FFFF02
:40264000DC00002080B582B000AF021CBB1D1A80BB1D1B88044A12785343181C00F09CFBBD4602B080BDC046E000002080B500AF00F032F8BD4680BD80B500AF064B064A59
:402680001268802109060A431A6000F019F800F01FF8BD4680BDC0460000074080B500AF064B1B78002B04D1FFF7E0FF034B01221A70FFF7E1FFBD4680BDC0466C01002053
:4026C00080B500AF0B20FFF767FFBD4680BDC04680B500AFBD4680BD80B500AF234B234A12680C210A431A60214B00221A60214B214A1A60214B224A1A60224B00221A6024
:40270000214B00221A60214B1D4A1A60204B00221A600B20FFF754FF0B200321FFF7E8FE1C4B0B20191CFFF7BDFE1B4B00221A601A4B00221A601A4B00221A60194B142288
:40274000FF321A60184B00221A60184B00221A60174B10221A70174B00221A80164B00221A60164B00221A60BD4680BD70000740000007406000074077080080000307404C
:402780000701008004030740100307400002074004020740C12D0000C80E0740880E0740480F0740080F0740C80F0740880F07408001002090010020A001002088010020B7
:4027C00080B586B000AFF860B9607A603B6004237B61BB68002B20D0324B1B78DBB2102B0CD10B20FFF7ECFE2F4B1B680122134001D0082300E000237B610EE0294B1B7895
:40280000DBB2602B09D1294B1B889BB2082293439AB2264B1A8000237B617B69002B38D1204B28221A70224B00221A60214B00221A60214B7A681A60204BBA681A603B6812
:40284000DAB21F4B1A70FB685B00FF221340FB60164B1B889BB2022293439AB2134B1A80184B194A1A60194B40221A60184B40221A603B680122134005D000F0E7F8154BE0
:40288000FA681A6005E0134BFA681A60124B02221A600B20FFF780FE7B69181CBD4606B080BDC04680010020640007409001002084010020880100208C010020A4010020B2
:4028C00098010020000F074017030000800F0740880F0740400207406800074080B586B000AFF860B9607A603B6004237B61BB68002B20D0374B1B78DBB2102B0CD10B209D
:40290000FFF75EFE344B1B680122134001D0082300E000237B610EE02E4B1B78DBB2602B09D12E4B1B889BB2082293439AB22B4B1A8000237B617B69002B43D1254B292264
:402940001A70274B00221A60264B7A681A60264BBA681A603B68DAB2244B1A70FB685B00FF22134001221343FB601C4B1B889BB2012293439AB2194B1A801D4B1D4A1A60D4
:40298000184B1B68072B03D81B4B04221A6009E01A4B1A4A1268802149000A431A60164B08221A603B680122134005D000F04EF8134BFA681A6005E0114BFA681A60114B65
:4029C00002221A600B20FFF7E7FD7B69181CBD4606B080BD800100206400074090010020A00100209C0100209401002098010020000F074017030000C80F07406000074008
:402A0000400207406800074080B582B000AF0B20FFF7D6FD0B4B1B889BB27B600A4B1B78DBB220221340DBB2002B03D07B68042213437B600B20FFF7AFFD7B68181CBD467D
:402A400002B080BD900100208001002080B582B000AF254B1B687B60C04600F04FF8031EFBD0002000F058F8204B204A126820490A401A601F4B1F4A1268520052081A60B9
:402A80007B682022134010D0002000F045F80A20FFF7D8FD012000F03FF8C04600F062F8031EFBD00A20FFF7CDFD002000F034F80A20FFF7C7FD104B01221A600D4B0D4A47
:402AC0001268802109060A431A60084B074A126807490A40E02109030A431A60012000F01BF8BD4602B080BD6400074000000140FFFFF0FF000007406800074080B500AF90
:402B0000044B1B68202213405B09DBB2181CBD4680BDC0460400044080B584B000AF021CFB1D1A700E4B1B68DAB20F23FB1810218A431A70FB1D1B781B01DBB21022134095
:402B4000D9B20F23FB180F22BA1812780A431A70034B0F22BA1812781A60BD4604B080BD0000044080B500AF044B1B68102213401B09DBB2181CBD4680BDC04604000440E6
:402B800080B500AF00F030F8BD4680BD80B500AF064B064A1268802109060A431A6000F019F800F01BF8BD4680BDC0460000064080B500AF064B1B78002B04D1FFF7E0FF36
:402BC000034B01221A70FFF7E1FFBD4680BDC0467401002080B500AFBD4680BD80B500AF00F05CF8BD4680BD80B500AF194B1A4A1A601A4B00221A60194B01221A60194B11
:402C0000194A1A60194B07221A60194B00221A60184B01221A60184B134A1A60174B00221A60174B00221A60164B00221A60164B00221A60154B00221A60154B00221A6088
:402C4000144B00221A60134B1B689AB2124B1A80BD4680BD000006400B000002400006404800064000030640070000800403064010030640440006400002064004020640FA
:402C8000880E0640C80E0640480F0640080F0640C80F0640880F06407601002080B500AF064B064A1268F0218A4390210A431A60034B044A12881A60BD4680BD10000140FB
:402CC000880F06407601002080B584B000AF78600023FB6009E07A68FB68D3181B78181C00F0D6FAFB680133FB607A68FB68D3181B78002BEFD1BD4604B080BD80B584B055
:402D000000AF021CFB1D1A700E4B1B68DAB20F23FB1802218A431A70FB1D1B78DB18DBB202221340D9B20F23FB180F22BA1812780A431A70034B0F22BA1812781A60BD46CF
:402D400004B080BD0002044080B584B000AF021CFB1D1A700E4B1B68DAB20F23FB1804218A431A70FB1D1B789B00DBB204221340D9B20F23FB180F22BA1812780A431A709B
:402D8000034B0F22BA1812781A60BD4604B080BD00020440000000000230800804D0C0460138FDD1C046C046C0467047EFF3108072B6704780F310887047C046C046C046FB
:402DC00080B582B000AF00233B60BE4B1B68002B02D0BC4B1B689847BB4B1B680122134002D0BA4B00221A60B94B1B78DBB220221340DBB2002B38D0B64B1A6880235B00A1
:402E000013400AD0B44B1B889BB2C022920013439AB2B14B1A8001233B60AE4B1B68012213400AD0AC4B1B889BB29022920013439AB2A94B1A8001233B603B68002B14D073
:402E4000A34B1B78DBB201221340DBB2002B01D0012300E00223A04A128892B213439AB29D4B1A809A4B00221A70994B1B78DBB220221340DBB2002B00D1A2E1954B1B6897
:402E80001022134018D0954B10221A60904B1B78DBB201221340DBB2002B01D0012300E002238D4A128892B213439AB28A4B1A80874B10221A70BAE1854B1B78DBB20822ED
:402EC0001340DBB2002B29D0824B1B68022213400ED0824B02221A607F4B1B889BB28822920013439AB27C4B1A8001233B6015E0774B1B78DBB201221340DBB2002B03D02E
:402F0000734B25221A7009E0714B24221A70744B1B68002B02D0734B10221A606C4B1B78DBB204221340DBB2002B00D111E1684B1B78DBB201221340DBB2002B5BD06A4B38
:402F40001B680822134033D0684B1A68684B1B680F211940674B1B68CB18D31A7B607B68082B02D908237B600CE07B68002B09D1614B614A126861490A401A6008237B606A
:402F800001233B6010E05E4B1A685A4B1B68D2185C4B1B68DBB21370564B1B685A1C554B1A607B68013B7B607B68002BEBD11EE04D4B1B680422134019D0514B1A684D4B42
:402FC0001B68D2184F4B1B68DBB21370494B1B685A1C484B1A60474B1A68444B1B689A4203D2494B04221A6001E001233B60474B474A1A60ADE0374B1B680222134032D04A
:40300000364B02221A60434B1B680F221A40414B196880231B020B4001D0012300E00023D2183D4B1B689A1A3B4B1A603A4B1A683A4B1A60284B1B889BB284229200134325
:403040009AB2254B1A80364B354A1268802149020A431A60324B324A126832490A401A6001233B6075E0304B1B681022134065D015E0294B1A681A4B1B689A420ED22B4A4B
:403080002B4B1968244B1B68CB181B78DBB21360214B1B685A1C204B1A6000E005E01D4B1B680F221340082BE3D11B4B1A680C4B1B689A4202D10B4B40221A601D4B1E4AD9
:4030C0001A6046E0700100208C0E0740880E0740800100200C0F074090010020000F07408C010020880F0740CC0F07409C01002008030740A001002060000740FFFEFFFFB8
:40310000940100204003074068000740C00F0740ED0F000008020740840100208801002004020740FFFFFEFF8C0F074040020740A4010020800F0740F30700003D4B1B689D
:403140004022134005D03C4B1A683C4B1A6001233B603B68002B6AD0394B394A126839490A401A60384B00221A60384B00221A60374B1B78DBB202221340DBB2002B15D039
:40318000344B1B78DBB201221340DBB2002B01D0092300E00A23304A128892B213439AB22D4B1A802B4B60221A7040E02B4B2C4A126820210A4001D0182200E010221A6002
:4031C00035E0244B1B78DBB210221340DBB2002B2DD1244B234A1268520052081A601D4B10221A70164B164A12681F490A401A60134B134A12681D490A401A60124B00220B
:403200001A60124B00221A60194B1A4A1A601A4B1A4A1A601A4B1B4A1A601B4B1B4A1A60104B104A1268802109060A431A60BD4602B080BD8C0F0740840100208801002045
:4032400060000740FFFEFFFFC80F0740880F0740980100208001002090010020680007406400074000000740FF5FFFFFFFFCFFFF800F0740ED0F0000C00F0740F3070000CD
:40328000400F0740FF0F0000000F07401703000080B582B000AF7860C046064B1B680F221340082BF9D0044B7A681A60BD4602B080BDC046080206404002064000224308CA
:4032C0008B4274D303098B425FD3030A8B4244D3030B8B4228D3030C8B420DD3FF22090212BA030C8B4202D31212090265D0030B8B4219D300E0090AC30B8B4201D3CB0328
:40330000C01A5241830B8B4201D38B03C01A5241430B8B4201D34B03C01A5241030B8B4201D30B03C01A5241C30A8B4201D3CB02C01A5241830A8B4201D38B02C01A524152
:40334000430A8B4201D34B02C01A5241030A8B4201D30B02C01A5241CDD2C3098B4201D3CB01C01A524183098B4201D38B01C01A524143098B4201D34B01C01A5241030960
:403380008B4201D30B01C01A5241C3088B4201D3CB00C01A524183088B4201D38B00C01A524143088B4201D34B00C01A5241411A00D20146524110467047FFE701B50020B7
:4033C00000F0FCF802BDC0460029F7D003B5FFF775FF0EBC4243891A1847C04603460B437FD4002243088B4274D303098B425FD3030A8B4244D3030B8B4228D3030C8B42A2
:403400000DD3FF22090212BA030C8B4202D31212090265D0030B8B4219D300E0090AC30B8B4201D3CB03C01A5241830B8B4201D38B03C01A5241430B8B4201D34B03C01AFA
:403440005241030B8B4201D30B03C01A5241C30A8B4201D3CB02C01A5241830A8B4201D38B02C01A5241430A8B4201D34B02C01A5241030A8B4201D30B02C01A5241CDD250
:40348000C3098B4201D3CB01C01A524183098B4201D38B01C01A524143098B4201D34B01C01A524103098B4201D30B01C01A5241C3088B4201D3CB00C01A524183088B4278
:4034C00001D38B00C01A524143088B4201D34B00C01A5241411A00D201465241104670475DE0CA0F00D04942031000D34042534000229C4603098B422DD3030A8B4212D340
:40350000FC22890112BA030A8B420CD3890192118B4208D3890192118B4204D389013AD0921100E08909C3098B4201D3CB01C01A524183098B4201D38B01C01A52414309F7
:403540008B4201D34B01C01A524103098B4201D30B01C01A5241C3088B4201D3CB00C01A524183088B4201D38B00C01A5241D9D243088B4201D34B00C01A5241411A00D287
:403580000146634652415B10104601D34042002B00D54942704763465B1000D3404201B5002000F00BF802BD0029F8D003B5FFF715FF0EBC4243891A1847C0467047C04677
:4035C000014B18687047C0464C0100200E4B70B500251E1C0D4CE41AA410A54204D0AB00F35898470135F8E700F0BCFD084B00251E1C084CE41AA410A54204D0AB00F35836
:4036000098470135F8E770BD70410000704100007041000078410000002310B5934203D0CC5CC4540133F9E710BD031C8218934202D019700133FAE7704700000EB410B5B0
:403640009DB002A9029008610B48822488604861012040421FABC881084804CBA400006801938C8100F06CF80023029A13701DB010BC08BC03B01847FFFFFF7F4C0100205D
:40368000F0B58E6885B0071C0C1C03920193B34245D390238A89DB001A423DD003250969236801985B1A029363695D43EB0F5D19029B6D1001331B189D4200D21D1C381C4C
:4036C00053050FD5291C00F01DFB061E13D0029A2169FFF7A1FFA289184B134080221343A38111E02A1C00F065FB061E0CD1381C216900F0C1FA0C23402201203B60A389F7
:4037000040421343A38117E0029B2661F61826606561019EED1AA560019BB34200D2019E321C2068039900F092FA0020A3689B1BA36023689E19266005B0F0BD7FFBFFFFF7
:40374000F0B59FB0029005938B890E1C171C1B0610D50B69002B0DD1402100F0D3FA30603061002804D10C23029A01381360D0E040237361002306AD6B6120336B76103384
:40378000AB763C1C2378002B03D1E31B049312D003E0252BF9D00134F4E7049B0298311C3A1CFFF76DFF431C00D1ACE06A69049B944663446B612378002B00D1A3E001227D
:4037C000002352426A6002A95432521801342B60EB60AB601370AB654F4F2178381C052200F02AFA002808D0C01B01278740381C2B68013418432860EEE72B68DA0604D554
:403800005322202102A8121811701A0704D553222B2102A81218117022782A2A01D0099B0EE0059A111D12680591002A01DB099204E05242EA60022213432B60013409E0B9
:403840002278303A092A04D80A214B4301349B18F6E7099323782E2B18D163782A2B09D1059B02341A1D1B680592002B0DDA01235B420AE0002301342278303A092A04D8E5
:403880000A214B4301349B18F6E70793234F2178381C032200F0D0F9002807D0C01B40278740381C2B6801341843286021781C480622671C297600F0BFF9002812D0194B4F
:4038C000002B06D10722059B073393430833059314E005AB00930298291C321C124B00E000BF07E005AB00930298291C321C0E4B00F08AF80390039B013304D06B69039AEE
:403900009B186B613DE7B3890B985B0601D5012040421FB0F0BDC0462E41000034410000384100000000000081360000F7B5171C01930A698B6800900C1C934200DA131C26
:40394000221C3B6043321278002A01D001333B6023689B0602D53B6802333B60062523681D401ED0231C43331B785A1E9341226892061CD53020E1184031C870211C5A1CE2
:4039800045310978A21840320233D1700FE0221C0123009801991932089EB047431C0ED00135E3683A689B1A9D42F0DBDAE7221C009801994332089DA847431C02D10120B7
:4039C000404220E006232068E1683A6803400025042B03D18D1AEB43DB171D40A3682269934201DD9B1AED180027AF420ADA221C0123009801991A32089EB047431CDED091
:403A00000137F2E70020FEBDF0B58BB006920A1C43320793059004920A7E0C1C109B6E2A00D1A8E011D8632A22D009D8002A00D1B2E0582A00D0C2E045310A707C4A4FE0C7
:403A4000642A1DD0692A1BD0B9E0732A00D1A7E009D86F2A29D0702A00D0B0E0202209680A43226037E0752A1FD0782A33D0A6E00E1C1A684236111D196013683370A1E096
:403A800021681A68080606D4490604D5111D19600023D55E02E0111D19601568002D3BDA2D23049A6D42137036E021681A68080606D4490604D51568111D1960ADB202E0F0
:403AC000111D196015685A4B227E03930A276F2A1DD108271BE0221C782145321170554A19680392081D226818600D68100602D4500600D5ADB2D30702D520231A4322607C
:403B00001027002D03D1202322689A432260231C002243331A7002E00A27454B03936368A360002B03DB0422216891432160002D02D1049E002B0ED0049E281C391CFFF7D0
:403B400043FC039B013E5B5C281C3370391CFFF7B5FB051EF1D1082F09D12368DB0706D563682269934202DC3023013E3370049B9B1B23612BE009681A68080607D4490605
:403B800005D5111D19601368A28A1A8004E0111D1960136862691A600023049E236116E01A68111D196016680021301C626800F043F8002801D0801B6060636803E0261C6C
:403BC00042363270012323610023049A1370079B05980093211C069B09AAFFF7A7FE431C02D10120404221E0236905980699321C079DA847431CF4D023689B0705D4099B75
:403C0000E068984212DA181C10E00025E368099A9B1A9D42F3DA221C0123059806991932079EB047431CDCD00135EFE70BB0F0BD3F41000050410000C9B28218904204D00E
:403C400003788B4202D00130F8E70020704710B5814208D28B18984205D29B1A013A09D3995C8154FAE70023934203D0CC5CC4540133F9E710BD000030B500293ED00439D1
:403C80000B68002B00DAC9181D4A1368141C002B02D14B60116031E099420DD208680A189A4203D11368C3180B6053684B60216024E08A4203D8131C5A68002AF9D11D68B5
:403CC0005C198C420BD10968691858181960904214D110685268091819605A600EE08C4202D90C23036009E008680C18944203D114685268001908604A60596030BDC04630
:403D00007C010020032370B5CC1C9C430834051C0C2C01D20C2405E0002C03DA0C2300202B6042E08C42F9D3204A1368101C191C002913D00A68121B0DD40B2A02D90A606C
:403D40008B181FE08B4202D15A6802601BE04A685A600B1C17E00B1C4968E9E7144E3368002B03D1281C00F04BF83060281C211C00F046F8031C421CD0D00322C61C964301
:403D800086420AD11C60181C07210B301A1D8843821A0AD05142995007E0311A281C00F02FF8431CBAD0331CECE770BD7C01002078010020F8B5061C0C1C151C002904D138
:403DC000111CFFF79FFF041C18E0002A03D1FFF753FF2C1C12E000F025F8A8420ED2301C291CFFF78FFF071E07D0211C2A1CFFF713FC301C211CFFF73FFF3C1C201CF8BDF4
:403E000038B50023064C051C081C2360FEF740F9431C03D12368002B00D02B6038BDC046A80100200B1F1A68101F002A04DA891804390B68D0180438704700000000000013
:403E40004572726F723A2042617465727279206261636B757020646964206E6F7420776F726B0A0D000000004E6F74653A20506F77657220776173206C6F73742E20426178
:403E80007474657279206261636B7570207375636365737366756C6C210A0D00636F6E74726F6C2033203A255820202020202000796561723A202564206D6F6E74683A2011
:403EC0002564206461793A256420776B4461793A25642025643A2532643A2564200A0D002525256300000000252525630A0D000080300F40800300400F40000400300F404E
:403F00007C4000008000000001000F402A310F403D320F4034330F4001420F400D430F4002600F40800F0084012109800A98102811401A51200621442254231028202920DC
:403F40002A043180321433013995400441044201484149044A08500252146280682869556B0171808210C00FC20FC407CA06CC0FCE0FD00ED20CD808E0010103030C0404C4
:403F800005090609070609050B0A100E1405160A1C031D021E041F0D300F370F38023B805440580459045B045F018002820D84728504860887038C4D8E80900192329302D2
:403FC000941295049664970398109A609CCD9D05A0CDA4CDA88DAA40AE80B00FB103B280B470B704BA22BE04BF40D409D804D904DB04DF0100040142040409800A840B101F
:404000000D440E80102B1101192A1A041E8021022301268031023244368038043C063F10582059045A41630164016508661081028640900491C992C99310982099049A10EC
:404040009D20A02BA180A680B208C02DC2BFC40FCC1BCEE2D60FD878E001E40283010D045B045F0164108304841093019508B104C204D603D801EE0101011001841A000002
:404080005618090204020018603300440718380201C100380A9C1003841A00000000000084820000801804000400800008007F0F00E0801308000028000041003205100001
:4040C00006BEF0DC3BFFFFFF2200F008040000000000022004040404000000010000C00040011011C00100114001400100000000000000000000000000000000030405061F
:404100000708090A0B0C0E0F101112131415161718191B1C1D1E1F2021222325262728292A2B2E2F30313233343500004300232D302B2000686C4C0065666745464700303F
:40414000313233343536373839414243444546003031323334353637383961626364656600000000F8B5C046F8BC08BC9E467047E916000079210000F8B5C046F8BC08BCE1
:404180009E467047C116000098410000D0000020800000006000000000000000B0010020006CDC0280BB0000300000000000C05D0100000000000000000000000000000040
:4041C00000000000000000000000000000000000000000002C4100000000000000000000000000000000000000000000000000000000000000000000000000000000000052
:404200000000000000000000000000000000000000000000EC0000200000000000000000000000000000000000000000000000000000000000000000000000000000000072
:40424000000000000000000000000000000000000000000000000000000000000000000000000000000000000000000000000000000000000000000000000000000000003E
:4042800000000000000000000000000000000000000000000000000000000000000000000000000000000000000000000000000000000000000000000000000000000000FE
:4042C00000000000000000000000000000000000000000000000000000000000000000000000000000000000000000000000000000000000000000000000000000000000BE
:40430000000000000000000000000000000000000000000000000000000000000000000000000000000000000000000000000000000000000000000000000000000000007D
:407FC000351114000027000000802E000000000000000100000000000000000000000000000000000000000000000000000000000000000000000000000000000000000051
:0200000490303A
:0200000030F6D8
:0200000490402A
:20000000FFFFFFFF00000000000000000000000000000000000000000000000000000000E4
:0200000490501A
:0C000000000204C81193110004DD4289C5
:0200000490600A
:0100000001FE
:00000001FF