:400000000010002011000000550300005503000008B500F07DFA00F0A5F90000F8B572B680220021D200444801F037F980224348D200002101F031F90022141C4049FF25CC
:4000400057580C313E1C081C6300AE433D4001336419CB186100013141188B4206D0581E00781D78801905700233F6E704320C2AE4D1C022334B92041A6099220025324B91
:4000800002211A60314B324A1D60324B3C241D6099231B041360304A304813608022304B92051A602F4A304B1A60304A13780B4313700378A343283C234303701620137850
:4000C0002B4C0343137080222A4B40181A608022294BD2031A604022284B1A60C022284B52031A603122274B1960274B1A608022264BD202196023681343236000F06AFFB8
:400100002268234B13402360224A234B1A601022224B1A60224B92181A608022214B12061A60214A214B25601A60214A214B1A60214B1D60F8BDC04600300F4000400F407A
:40014000B812000004000140100001400C00014000500F400803044010500F4001700F4018500F40100001002001054000700F4000010B4000000440080004400001044067
:4001800008010440000404400804044018040440FFFFFBFF0600008004010B40080202402002024008010B401000008000000240AF040080400002400C020B4010B5064C31
:4001C0002378002B07D1054B002B02D0044800E000BF0123237010BD5801002000000000B412000008B5084B002B03D00748084900E000BF07480368002B00D108BD064B4D
:40020000002BFBD09847F9E700000000B41200005C010020D00000200000000010B562B600F082FD00280ED16524012000F0B2FE00F07AFD002806D1013CE4B2002CF4D10F
:400240004022034B1A6000F061FD00F065FBFEE7C000002008B500F0A1FB00F0EBFB00F057FC08BD08B500F0A7FB08BD70B50D1C161C0024034BC9B21C8000F03DFC3580CF
:40028000201C70BD74010020F0B50A26171C00245E4387B0039005912D4DB4421ADA00F0BBFB80B228802B88002B0DD002202C8800F070FE00F0B0FB80B228802B88A4B2C2
:4002C000A342F3D8002306E00120013400F062FEA4B2E1E70523002401933C802B88002B32D02E883B88B6B2F318059A9BB23B80934220D2A3199BB20293029B9C4209D0B9
:40030000631C9BB20493039B1C1900F06BFB2070049CF2E772B62B889E1BB6B22E8062B6039B029A9B18013B1B78172B0AD0052000F030FE06E09E1B3E8000F07BFB052360
:40034000019301E0029CC9E7019807B0F0BDC0467401002008B500F06BFF03680C2B00D1FEE7FEE770B51049104B01394A1C15D000221E685C689D68A018AA4203D0B05880
:40038000A0500432F8E7021CDC68151AA54202D0002520C2F9E710330139E7E700F04EFFFFF73CFFFEE7C046010000003013000008B500239A000D49032B01D80C49895812
:4003C0000C4801338150302BF4D1FFF727FE0022094B1A60094B1A68002A00D11A6080220121D20513680B43136008BD550300000000000000000020C8000020C000002052
:40040000004770B5051C0E1C141C002802D0002000F0B2FD0020002C05D0013CAB191B5DC018C0B2F7E770BDF0B57F23051C9D432E1C2B1CA3B00191C40980361A78944680
:40044000614602AA571BF9540133B342F6D17F2318406B461B79111C1354A0B200F06CFC23B0F0BD013808B50B282FD8C901494200F0CAFE06080A0C0E10141216191B206E
:40048000174B13E0174B16E0174B0AE0174B12E0174B0BE0174B09E0174B02E0174B00E0174BC91816E0174B05E0174BC9180878C0B213E0154BC9180A7848788B780002A1
:4004C0001B041843CB7810431B0606E0002000F053FD00210B7848780002184308BDC046C07F0000C17F0000C57F0000C97F0000D07F0000D17F0000D67F0000D27F0000A9
:40050000D47F0000D87F0000DC7F0000E07F00000C4B10B51A68102313400B4A00D113601368802B0DD100240220211C1460FFF799FFA04205D0211C0220FFF793FFFFF77D
:400540005FFF10BD00030B40C0000020F8B5041C0320211CFFF786FF211C061C0420FFF781FF211C071C0620FFF77CFF0025012828D00320211CFFF775FF0136F601F7193C
:400580002E1C0130C001B84209D203785A1ED2B2FD2A00D801265D19EDB20130F3E70120211CFFF75FFF6D42EBB20625834209D1002E07D0044BE4016042C0180121FFF7DA
:4005C00033FF0025281CF8BDD17F0000F0B5B94CA544FFF73FFE62B6002701970297962128AC05AD201C49002A1CFF23FFF74CFE0028F4D12A88062A00D883E021780423F1
:4006000001294DD1E678A57836022E43F11D91427AD896225200914276D8A5196A792979AD799446172D3BD1F3189BB2002B08D0BEADA14AED18AD182D78013B401980B276
:40064000F3E7634640421A0280B20A430823824226D15BE0342B00D0B1E0019B012B51D1032E4FD173A80021802200F016FE8027972173ABD819F21E04ABBE19C918B6B28F
:4006800000F002FE832E00D0E1E0A0796379000203431F1EFF2F00D8DFE0012301930A23002428A801214370230AC370002304AA06320170211D1480847089B2002909D03E
:4006C000BEAD7D4E6D18AD192D7801395B199BB289B2F3E7BEA9794D09195B424D199BB22B70774D1B0A4D192B70764B0734CB1817211970A1B29623FFF7B8FD6FE7019B57
:40070000012B44D00423CBE70323C9E763782579181C323809282ED96B4A1468002C26D0019A012A25D108AD04AA13725681002129AE0C22281C079600F0AFFDAE6006A84E
:40074000291CA0472623AC88FF339C4202D9AB68B34207D0AA68002A01D1002C04D12B68DBB29EE70E239BE70E23141C99E7052397E7052394E700F051FDC2FFCFFF6DFF3C
:400780002800CFFF2D003F006DFF4F005D00012EB8D1002DB6D14D4B1B681B68DA0BD2B2DB09DBB2002A01D080235B0023711B0A6371FF23A3710023E371042471E7019B8C
:4007C000012B9FD1022E9DD952E7019B012B99D1002704E7019B012B94D12C33BC19FF339C4291DC73ABD81929A9321C00F04CFD0023A7B21C1C54E7002E83D108AB191C9B
:40080000334A371C11CA11C129AA03CB03C2012308240193331C44E7019B012B00D071E7032E00D06EE7A679637936021E43FF2E52D934E70020FFF789FE002802D18022F0
:40084000244B1A60FFF70EFD00F098FB5AE701230027019302333C1C23E71C4B1B681A68D3099BB2520601D001339BB22D027D19ADB29D4218D3029B002B0AD1191C8022AD
:4008800008A800F00AFDFF2008A900F055FA01230293281C73A900F04FFA002804D10123071C0193031CD6E70123002701930933D1E7C04604FDFFFFA7FDFFFFACFDFFFF5B
:4008C000ADFDFFFFAEFDFFFF78010020D4000020D4120000C000002029027118C90100208022FFF78EFD0390002D0FD1FF2E0DD1291C0520FFF7B6FD039B291C1B1A062097
:40090000DEB2FFF7AFFD331ADBB20393039B5B42237100230124C4E638B50020FFF716FE431E98410624134D40422B6804401A680020C03AC021FFF764FD6B681B78181AB4
:40094000C0B2984203D12B681B68002B02D1002000F012FB084B19681A1C402901D0002C03D000231360FFF731FE80221A6000F005FB38BDD4000020C00000208021064A62
:4009800008B5136809060B4313600A2000F0D6FA00F058F908BDC0460000064010B5054C2378002B03D100F0DFF801232370FFF7E5FF10BD7C01002008B50A2000F0C8FAE8
:4009C00000F052F9054A0A2013685B005B0813600022034B1A6000F0C5FA08BD00000640880F0640094B0A491A680B6800209A420AD00B685A1C403B581E83415B421A400F
:400A0000044B985C0A60C0B27047C0462002002098010020DC010020044B1868044B1A681B68904200D24130C01A7047200200209801002008B50A2000F08AFA0B4B8021CC
:400A40001A680B4B49021A6000220A4B0A201A70094B1A680A431A601968084A0A401A60074A084B1A6000F069FA08BD98010020200200201D02002004030640FFFFFEFFC2
:400A8000ED0F0000C00F064030B5144A144C11682368994208D1134B19680F230B40082B02D0114B186017E01368591C3F3B5D1EAB415B42194023689942FCD002240B4B29
:400AC000C0B21C600A4B58540A4B11601A68224202D11A6822431A6030BDC04694010020900100200802064040020640800F06409C010020880F064038B5041C4518AC422F
:400B000004D02078FFF7C0FF0134F8E738BD000008B50A2000F01CFA02210C4B0A201A680B4B1A600B4A13688B43802113600A4B49021A680A431A601968084A0A401A6076
:400B4000074A084B1A6000F0F9F908BD9001002094010020880F064004020640FFFFFEFFF3070000800F064010B51E4A00241E4B07201A6001221D4B1D491C601D4B1A60AD
:400B80001D4B0B601D4908601D4903300C601D490A601D4A13601D4B1C6000F0D9F90A20032100F0ADF91A490A2000F09DF90422184B1C60184B1C60184B1C60184B1C60A6
:400BC000184B1A60184B1C601A68184B1A80184B1C60184B1C60184B1C70184B1C60184B1C6010BD0B000002000006404000064000030640480006400700008004030640FE
:400C00001003064044000640000206400402064029110000880E0640C80E0640480F0640080F0640C80F0640880F06408401002020020020980100201D0200209401002083
:400C400090010020F021054A13688B4360390B431360034B1A88034B1A6070471000014084010020880F0640F021064A13688B431360054B1A68E423DB001340034A13807A
:400C80007047C04610000140880F064084010020842280210D4BD2041A601A6849020A431A600B490B4A0A6019681960C3210A4B890019600021094B1960094B1C311960D1
:400CC000084B1A60084A094B1A60704700010540080105401027000024010540380105402801054014010540881300000C01054008B500F00FFA0121034A13680B43136087
:400D000000F00CFA08BDC0460000054010B5054C2378002B03D1FFF7BBFF01232370FFF7E7FF10BD88010020024B18680006C00F7047C04604000440F0B50024ADB00894DB
:400D40000994FF2800D9AEE0A14200D1ABE0039080220CA800F098FA0222211C01940AAB9000C058002802D00918044301920132222AF4D1002903D1002C00D096E000E0C3
:400D8000002402947F224E494E4D0A914E4F5A604E4A2B603A60C0462B6805911B0F06920F2B02D12B68DBB205E02A680023120F0A2A00D02B680893089E002E00D07CE0EC
:400DC00000F0A8F9424A434B116809961960089B04900792002B19D13F4A03990A920A9A09040A430AA90A9229603C49354A3960C0462968090F0F2902D11368DBB204E0F8
:400E00001168090F0A2900D013680893089E002E3DD1002C3BD00CA8311C802200F03DFA019B029A0AAC9B001A51059B069A0A937F2363602C60234B3A60C0462A68120FA2
:400E40000F2A02D11E68F6B204E01A68120F0A2A00D01E680896089B002B18D1204A03990A920A9A08041F4910430A90154A2C603960C0462968090F0F2902D11368DBB2E5
:400E800004E01168090F0A2900D013680893099B002B04D10F4A079912680A600993049800F03CF909E00423089306E0019A0124920098589950029064E708982DB0F0BD03
:400EC000B6D7000008000040040000400400008008010B408C010020B6D8000005000080B6D90000060000801F2800D901BE034B8000C318186819607047C046400000208E
:400F000038B5041C0D1E032D00D901BE1F2C00D901BE00F0FFF8A308074A9B009B180322144094400634A240A540196891432943196000F0F3F838BD00E400E01F231840E7
:400F40001E3B8340181C014B1860704700E100E01F2318401E3B8340181C014B1860704780E100E01F2318401E3B8340181C014B1860704780E200E001BE7047034A044988
:400F800013689BB20B4313607047C0460CED00E00400FA0510B5041C8022074B1202944205D9586800F0ACF8044BE418F4E79868604300F0A5F810BDDC0000200080FFFF7D
:400FC00008B5034B1B7B584300F09AF808BDC046DC000020F0B5051C87B000F09BF8EB1E049003932D2B5CD8314B1B789D4204D8304B1C78304BE4B21EE0304B1B789D4258
:4010000004D82F4B1C782F4BE4B215E02E4B1B789D4204D82D4B1C782D4BE4B20CE02D4B1B789D4204D82C4B1C782C4BE4B203E02B4B1C782B4BE4B21B78039ADBB20193CC
:40104000294B2A4F9A5C059302922F2A04D92A2D02D919263E6008E03F233E681E40029BB34205D2214B029A1A60052000F048F81C4B1F4AED182B780520DBB213601D4B89
:40108000019A1C601C4B1A60FFF79AFF029BB34208D9059B039A05209B5C3B6000F030F800E001BE049800F039F807B0F0BDC046C0F1FF0FC1F1FF0FC2F1FF0FC3F1FF0F62
:4010C000C4F1FF0FC5F1FF0FC6F1FF0FC7F1FF0FC8F1FF0FC9F1FF0FCAF1FF0FCBF1FF0FCCF1FF0FCDF1FF0FDC1200002CFF0B4028FF0B401CFF0B4020FF0B40000000007F
:401100000230800804D0C0460138FDD1C046C046C0467047EFF3108072B6704780F310887047C046C046C04608B5264B1B68002B00D09847244B1B685B071CD523490B6877
:401140005A1C403B581E83415B421A40204B1868204B1B68824203D120221F4B1A7003E01E48DBB283540A601D4B1B681B07E5D104221C4B1A601C4B1B689B0721D51B4BDD
:401180001B491A680B689A4213D00B685A1C3F3B581E83415B421A40164B17489B5CDBB20360164B0A601A680F231340082BE6D104E00221124A13688B4313600222114B81
:4011C0001A6008BD80010020CC0F06402002002098010020400306401D020020DC01002008030640C00F06408C0F064094010020900100209C0100204002064008020640EC
:40120000880F0640800F064002B4714649084900095C49008E4402BC7047C04603B47146490840004900095E49008E4403BC7047014B18687047C046500100200E4B70B542
:4012400000251E1C0D4CE41AA410A54204D0AB00F35898470135F8E700F058F8084B00251E1C084CE41AA410A54204D0AB00F35898470135F8E770BD18130000181300003F
:401280001813000020130000002310B5934203D0CC5CC4540133F9E710BD031C8218934202D019700133FAE77047000000140000D00000000000000001330F4003410F4070
:4012C00004430F40E61062048E04D84018808C40C608E6089311C80411320101030405060708090A0B0C0E0F101112131415161718191B1C1D1E1F2021222325262728296E
:401300002A2B2E2F3031323334354300F8B5C046F8BC08BC9E467047E5010000B1030000F8B5C046F8BC08BC9E467047BD01000040130000D000002088000000D00000000A
:4013400000000000AC120000B0120000010000000000E02EC05D00001800000000366E01000000000000000000000000000000000000000000000000000000000000000004
:401380000A13000000000000000000000000000000000000000000000000000000000000000000000000000000000000000000000000000000000000000000000000000010
:4013C000F0000020000000000000000000000000000000000000000000000000000000000000000000000000000000000000000000000000000000000000000000000000DD
:401400000010002011140000612400006124000080B500AF024B83F3088801F053F8C0460010002080B500AF124B124A12688021C9020A431A60302001F0DEF80E4B0F4A91
:401440001A600F4B20221A600E4B10221A600E4B802212061A60074B8022D2021A600B4B0B4A1A600B4B0C4A1A600C4B00221A60BD4680BD00010B4004010B400600008068
:40148000080202400C02024008010B40000002401D000080400002404C0100800C020B4080B582B000AF72B6FB1D00221A7023E0FB1D1A78131C5B009B185B00394A9B1838
:4014C0003B603B681A78597809020A43997809040A43DB781B061343191C3B681A795B791B0213439BB2081C191C01F071F8FB1D1A78FB1D01321A70FB1D1B78012BD7D906
:40150000294BEE2212041A60284BEE2212021A60274B99221A60274B992212041A60264B992212041A60254B992212041A60244A234B1B78DBB202210B43DBB21370214AC3
:40154000204B1B78DBB23C218B43DBB214210B43DBB213701A4A1A4B1B78DBB216210B43DBB21370184B30221A60184B184A1A60184B194A1A60194B03221A60184B194AA0
:401580001A60194B0A221A60184B194A1A60194B02221A60FFF746FF01F02AF8BD4602B080BDC046C8440000000001400C0001401000014000500F4020500F4030500F4007
:4015C00000700F4001700F4000000440080004400640020008020440B66D00000003044008030440B60D00000004044008040440310C00001804044010B5064C2378002BB8
:4016000007D1054B002B02D0044800E000BF0123237010BD58010020000000006844000008B5084B002B03D00748084900E000BF07480368002B00D108BD064B002BFBD0E2
:401640009847F9E700000000684400005C010020D00000200000000080B584B000AF7860012001F037FE322001F08CF9002001F031FE642001F086F9012001F02BFE7B6841
:401680009B789BB23C22534399B27B685B789AB20C23FB188A181A800C23FB181B88181C582100F059FE0E23FB1800221A8012E0012001F035FEC82001F064F9002001F0B4
:4016C0002FFEC82001F05EF90E23FB181A880E23FB1801321A800E23FA180C23FB1812881B889A42E4D3012001F01AFEBD4604B080BDC04690B599B000AFFA239B00181CF4
:4017000001F01CF901F06AF9E64B181C01F002FC01F0EEFB62B65F23FC18022000F038FA031C23705F23FB181B781B09DBB20A2B2CD0012001F012FDFA239B00181C01F075
:40174000FDF8002001F00AFDFA239B00181C01F0F5F8012001F002FDFA239B00181C01F0EDF8002001F0FAFC4F23FB18A0221A704F23FB181B780220191C00F041FA5F23CB
:40178000FC18022000F004FA031C23705F23FB181B780F22134015D0012001F0B9FCFA23DB00181C01F0CAF8002001F0B1FC0220A02100F025FA5F23FC18022000F0E8F9E3
:4017C000031C23704023FB1812229A714023FB1801225A714023FB180622DA704023FB1806221A714023FB1814229A704023FB1813225A704023FB1800221A705E23FB182C
:4018000000221A703023FB18181CFF21002200F02FFB5D23FB1800221A702823FB18181CFF211E2200F024FB4E23FB1800221A705C23FB1800221A702023FB18181CFF21AE
:40184000192200F015FB0023BB654023FB18181C00F0B0FA4023FB18181CFFF7FDFE924B1B78DBB25BB2013300D0A7E08F4B181C01F010FC012001F04BFC8D4B1B78181C73
:4018800001F05CF8002001F043FC8A4B1B78DBB21A1CC023134059D1012001F015FC844B1B78181C01F04AF8002001F00DFC4D23FB18804A12781A704C23FB187D4A92784E
:4018C0001A704B23FB187B4A52781A704D23FB181B789BB2181C582100F03EFD4B23FB181B789BB2181C582100F036FD4C23FB181B789BB2181C582100F02EFD3823F818C3
:401900004C23FB1819784B23FB181A784D23FB181B7800F081FA684B1A78684B1B789A4202D1654B00221A70634B1B781A1C644B920038217918D1505F4B1B780133DAB2AA
:401940005D4B1A705F4B181C01F0A4FB594B1B78DBB21A1CC0231340C02B2CD1012001F023FC534B1B78181C00F0E8FF002001F01BFC4A23FB184F4A52781A704A23FB182D
:401980001B78181C00F08AF94A4B1B78DBB23F221340DAB2474B111C19704923FB181A704923FB181B78181C00F050F94023FB18181CFFF751FE3C4B00221A704023FB1890
:4019C000181C00F0F7F95723FB18FF221A7000233B6512E03A4B3A6D9200D3584022BA18101C191C00F06AFA031E03D15723FB1800221A703B6D01333B652F4B1B781A1E25
:401A00003B6D9A42E6DC5723FB181B78002B1DD15E23FB181B78002B18D15723FB18FF221A705E23FB1801221A70012001F0E2FB002001F005FC1E4B1B78181C00F07EFFD5
:401A4000002001F0D7FB012001F0FAFB5723FB181B78002B08D05E23FB181B78002B03D05E23FB1800221A704023FA182023FB18101C191C00F022FA031E25D15C23FB1813
:401A80001B78002B20D15C23FB1801221A70002001F0FCFB012000F051FF012001F0F6FB25E0C046A9230000740100206C440000D4000020AC01002076010020D500002063
:401AC000900100207C4400004023FA182023FB18101C191C00F0F2F9031E08D05C23FB181B78002B03D05C23FB1800221A704023FA183023FB18101C191C00F0DFF9031EEF
:401B00001BD15D23FB181B78002B16D1002001F007FCC82000F036FF012001F001FC012001F0D2FA642000F009FF002001F0CCFA5D23FB1801221A7012E04023FA18302326
:401B4000FB18101C191C00F0B9F9031E08D05D23FB181B78002B03D05D23FB1800221A704823FC18022000F013F8031C2370BB6D181C192102F02EF80B1E04D14023FB1883
:401B8000181C00F027FABB6D0133BB6567E6C04680B584B000AF021CFB1D1A700C23FB1800221A700C23FB18FA1D12781A700823FB1800221A700C23FB186820191C0122D2
:401BC000022300F09DFFC04601F0BEF8021C02231340F9D00823FB186820191C0122012301F01CF8C04601F0AFF8021C01231340F9D00823FB181B78181CBD4604B080BDEC
:401C000080B584B000AF021CFB1D1A70BB1D0A1C1A700C23FB18FA1D12781A700C23FB18BA1D12785A700C23FB186820191C0222002300F065FFC04601F086F8021C022318
:401C40001340F9D0BD4604B080BDC04690B585B000AF021CFB1D1A700F23FC18FB1D1B78181C00F027FA031C23700F23FB181B780320191CFFF7C4FFBD4605B090BDC04689
:401C800080B500AF0320FFF783FF031C181C00F0D9F9031C181CBD4680BDC04690B585B000AF021CFB1D1A700F23FC18FB1D1B78181C00F063FA031C23700F23FB181B7812
:401CC0000420191CFFF79CFFBD4605B090BDC04680B500AF0420FFF75BFF031C181C00F015FA031C181CBD4680BDC04690B583B000AFFC1D0520FFF74BFF031C2370FB1D3D
:401D00001B78181C00F066FA031C181CBD4603B090BDC04690B583B000AFFC1D0620FFF737FF031C2370FB1D1B78181C00F052FA031C181CBD4603B090BDC04690B583B0FD
:401D400000AFFC1D0720FFF723FF031C2370FB1D1B78181C00F076FA031C181CBD4603B090BDC04690B583B000AFFC1D0820FFF70FFF031C2370FB1D1B78181C00F07CFAAC
:401D8000031C181CBD4603B090BDC04690B583B000AFFC1D0920FFF7FBFE031C2370FB1D1B78181C00F0A0FA031C181CBD4603B090BDC04680B582B000AF7860FFF7E6FF2F
:401DC000031C1A1C7B689A71FFF7CCFF031C1A1C7B685A71FFF79EFF031C1A1C7B68DA70FFF7ACFF031C1A1C7B681A71FFF77EFF031C1A1C7B689A70FFF76AFF031C1A1CFA
:401E00007B685A70FFF73CFF031C1A1C7B681A70BD4602B080BDC04690B583B000AF78600C1C101C191CFB1C221C1A70BB1C021C1A707B1C0A1C1A707B68FF229A717B68EB
:401E4000FF225A717B68FF22DA707B68FA1C12781A717B68BA1C12789A707B687A1C12785A707B6800221A70BD4603B090BDC04680B582B000AF7860081C111CFB1C021CF4
:401E80001A70BB1C0A1C1A707B68FF229A717B68FF225A717B68FF22DA707B68FF221A717B68FF229A707B68FA1C12785A707B68BA1C12781A70BD4602B080BD80B584B0D3
:401EC00000AF786039600F23FB1800221A707B689A793B689B799A420AD03B689B79FF2B06D00F23FB181A780F23FB1801321A707B685A793B685B799A420AD03B685B7984
:401F0000FF2B06D00F23FB181A780F23FB1801321A707B68DA783B68DB789A420AD03B68DB78FF2B06D00F23FB181A780F23FB1801321A703B681B791A1C7B681B791A41D9
:401F4000131C012213400AD13B681B79FF2B06D00F23FB181A780F23FB1801321A707B689A783B689B789A420AD03B689B78FF2B06D00F23FB181A780F23FB1801321A70E1
:401F80007B685A783B685B789A420AD03B685B78FF2B06D00F23FB181A780F23FB1801321A707B681A783B681B789A420AD03B681B78FF2B06D00F23FB181A780F23FB183E
:401FC00001321A700F23FB181B78181CBD4604B080BDC046F0B59FB006AFF860FB689B79BB60FB685B797B60FB68DB781E1CFB681B791D1CFB689B781C1CFB685B78181C41
:40200000FB681B78191C0C2208239C46BC4462440B4B00960195029403900491101C191CBA687B6801F020FE0C2308229446BC446344181C01F02EF8BD4619B0F0BDC0463B
:402040008844000080B584B000AF021CFB1D1A700F23FB1870221A700E23FB180F221A70FB1D0F22BA181B7812781340DAB20D23FB1812091A700D23FA180D23FB181B7845
:40208000191C8900CB18DB1813700C23FB18FA1D0E217918127809780A401A700D23FA180C23FB1812781B78D318DBB2181CBD4604B080BD90B585B000AF021CFB1D1A70E7
:4020C0000F23FC18FB1D1B78181C0A2101F00CFC031C23700F23FB181B780A2252425343D9B20E23FB18FA1D12788A181A700F23FB181B781B01DAB20E23FB181B7813436E
:40210000DBB2DBB2181CBD4605B090BD80B584B000AF021CFB1D1A700F23FB1870221A700E23FB180F221A70FB1D0F22BA181B7812781340DAB20D23FB1812091A700D23E5
:40214000FA180D23FB181B78191C8900CB18DB1813700C23FB18FA1D0E217918127809780A401A700D23FA180C23FB1812781B78D318DBB2181CBD4604B080BD90B585B0AD
:4021800000AF021CFB1D1A700F23FC18FB1D1B78181C0A2101F0A8FB031C23700F23FB181B780A2252425343D9B20E23FB18FA1D12788A181A700F23FB181B781B01DAB2D0
:4021C0000E23FB181B781343DBB2DBB2181CBD4605B090BD80B584B000AF021CFB1D1A700F23FB1830221A700E23FB180F221A70FB1D0F22BA181B7812781340DAB20D2320
:40220000FB1812091A700D23FA180D23FB181B78191C8900CB18DB1813700C23FB18FA1D0E217918127809780A401A700D23FA180C23FB1812781B78D318DBB2181CBD466F
:4022400004B080BD80B584B000AF021CFB1D1A700F23FB180F221A700E23FB18FA1D0F217918127809780A401A700E23FB181B78181CBD4604B080BD80B584B000AF021C65
:40228000FB1D1A700F23FB1810221A700E23FB180F221A70FB1D0F22BA181B7812781340DAB20D23FB1812091A700D23FA180D23FB181B78191C8900CB18DB1813700C231F
:4022C000FB18FA1D0E217918127809780A401A700D23FA180C23FB1812781B78D318DBB2181CBD4604B080BD80B584B000AF021CFB1D1A700F23FB18F0221A700E23FB18D7
:402300000F221A70FB1D0F22BA181B7812781340DAB20D23FB1812091A700D23FA180D23FB181B78191C8900CB18DB1813700C23FB18FA1D0E217918127809780A401A70BC
:402340000D23FA180C23FB1812781B78D318DBB2181CBD4604B080BD80B586B000AF021CBB1D1A807B1D0A1C1A707B1D1B780822B9180C4A081C111C1A1C01F075FCBB1DED
:402380001B881022B9180822BA18081C111C1A1C01F06AFC1023FB18181C00F07BFEBD4606B080BDC044000090B583B000AF264B1B78DBB2181C032101F01CFB0B1CDBB2F4
:4023C0001C1C00F03FFE031CDAB2204B1A551E4B1B78DBB2181C032101F00CFB0B1CDBB21A1C1A4B9B5CDBB29BB2181C5821FFF7B3FF174B1B687B60134B1B78DBB2013333
:40240000DAB2114B1A70104B1B78DBB2181C032101F0F0FA0B1CDBB2002B02D10D4BFF221A700D4B7A681A600C4B1B785A425341DBB21A1C094B1A70084B1B78181C00F04E
:40244000B3FEBD4603B090BD75010020AC010020CC0F064074010020C00F06407701002080B500AF01F0C2FB031C1B680C2B00D1FEE7FEE780B584B000AF78600F4B1A6810
:402480007B68D3181A1C0E4BD31A802B09DC0B4B1B68FB60094B1A687B68D218074B1A6007E001F0A3FB031C0C221A6001235B42FB60FB68181CBD4604B080BDD8000020C3
:4024C000D801002080B586B000AF224B7B61224B3B61204B7B6135E03B691B68FB603B695B68BB603B699B683B6000237B600CE0FB681A68BB681A60BB680433BB60FB6891
:402500000433FB607B6804337B607A683B689A42EED13B69DB683B6000237B6008E0BB6800221A60BB680433BB607B6804337B607A683B689A42F2D13B6910333B617B69D8
:40254000013B7B617B69002BC6D101F055FBFFF7D1F8FEE7010000006045000080B582B000AF00237B600FE07B68032B04D8134B7A689200D35800E0114B124A7968890023
:402580008B507B6801337B607B682F2BECD9FEF787FF0D4B00221A600C4B1B68002B02D10A4B00221A608023DB058022D205126801210A431A60BD4602B080BD00140000AF
:4025C0006124000000000020C8000020C000002080B582B000AF786039607A683B68101C00211A1C01F037FBBD4602B080BDC04680B500AFBD4680BD90B585B000AF78609F
:402600000C23FC1800F0BAFE031C23707B68022B00D8B4E07B68302B00D9B0E05E4B1B78DBB21A1E7B689A420AD35C4A0F23FB1812781A705A4A0E23FB1812781A703FE023
:40264000584B1B78DBB21A1E7B689A420AD3564A0F23FB1812781A70544A0E23FB1812781A702DE0524B1B78DBB21A1E7B689A420AD3504A0F23FB1812781A704E4A0E237A
:40268000FB1812781A701BE04C4B1B78DBB21A1E7B689A420AD34A4A0F23FB1812781A70484A0E23FB1812781A7009E0464A0F23FB1812781A70454A0E23FB1812781A70DD
:4026C0007B68DA1E0B23FB1841498A5C1A700B23FB181B782F2B0DD97B682A2B0AD93D4B19221A60052000F03FFE0D23FB1819221A7007E0374B1B68DAB20D23FB183F21E3
:402700000A401A700B23FA180D23FB1812781B789A4208D22F4B7A68033A2D498A5C1A60052000F021FE7B68284A9A180A23FB1812781A70284B0A22BA1812781A60274B8A
:402740000F22BA1812781A60254B0E22BA1812781A60052000F016F90B23FA180D23FB1812781B789A4209D91A4B7A68033A18498A5C1A60052000F0F7FD03E002E0002027
:4027800000F0D2F80C23FB181B78181C00F0FAFDBD4605B090BDC046C0F1FF0FC1F1FF0FC2F1FF0FC3F1FF0FC4F1FF0FC5F1FF0FC6F1FF0FC7F1FF0FC8F1FF0FC9F1FF0FC1
:4027C000CAF1FF0FCBF1FF0FCCF1FF0FCDF1FF0FD44400002CFF0B4028FF0B401CFF0B4020FF0B4080B584B000AF021C3960FB1D1A7080239B05FB60FB1D1B781F2B02D900
:40280000002000F091F8FB1D1B7810339B00FA68D3181B68BB60FB1D1B7810339B00FA68D3183A681A60BB68181CBD4604B080BD90B587B000AF021CFB1D1A70BB1D0A1C65
:402840001A70BB1D1B78032B02D9002000F06CF8FB1D1B781F2B02D9002000F065F8FB1D1B7803221340DB0006337B611323FC1800F084FD031C2370FB1D1B789B08DBB24E
:402880009B00144A944663441B68FB607B6903229A40131CDA43FB681340FB60BB1D1A787B699A40131CFA681343FB60FB1D1B789B08DBB29B00074A94466344FA681A60F2
:4028C0001323FB181B78181C00F05CFDBD4607B090BDC04600E400E080B582B000AF021CFB1D1A70054BFA1D12781F210A40012191400A1C1A60BD4602B080BD00E100E017
:4029000080B582B000AF021CFB1D1A70054BFA1D12781F210A40012191400A1C1A60BD4602B080BD80E100E080B582B000AF021CFB1D1A7001BEBD4602B080BD80B582B092
:4029400000AF786009E00C4B1B68181C00F00CFD7B680A4A944663447B607A6880231B029A42F0D8064B1B687A685343181C00F0FBFCBD4602B080BDE80000200080FFFF28
:40298000E000002080B582B000AF021CBB1D1A80BB1D1B88044A12785343181C00F0E4FCBD4602B080BDC046E400002080B500AF00F032F8BD4680BD80B500AF064B064AC5
:4029C0001268802109060A431A6000F019F800F01FF8BD4680BDC0460000074080B500AF064B1B78002B04D1FFF7E0FF034B01221A70FFF7E1FFBD4680BDC0467801002004
:402A000080B500AF0B20FFF767FFBD4680BDC04680B500AFBD4680BD80B500AF234B234A12680C210A431A60214B00221A60214B214A1A60214B224A1A60224B00221A60E0
:402A4000214B00221A60214B1D4A1A60204B00221A600B20FFF754FF0B200321FFF7E8FE1C4B0B20191CFFF7BDFE1B4B00221A601A4B00221A601A4B00221A60194B142245
:402A8000FF321A60184B00221A60184B00221A60174B10221A70174B00221A80164B00221A60164B00221A60BD4680BD700007400000074060000740770800800003074009
:402AC000070100800403074010030740000207400402074091330000C80E0740880E0740480F0740080F0740C80F0740880F0740AF010020BC010020CC010020B4010020EB
:402B000080B586B000AFF860B9607A603B6004237B61BB68002B20D0324B1B78DBB2102B0CD10B20FFF7ECFE2F4B1B680122134001D0082300E000237B610EE0294B1B7851
:402B4000DBB2602B09D1294B1B889BB2082293439AB2264B1A8000237B617B69002B38D1204B28221A70224B00221A60214B00221A60214B7A681A60204BBA681A603B68CF
:402B8000DAB21F4B1A70FB685B00FF221340FB60164B1B889BB2022293439AB2134B1A80184B194A1A60194B40221A60184B40221A603B680122134005D000F0E7F8154B9D
:402BC000FA681A6005E0134BFA681A60124B02221A600B20FFF780FE7B69181CBD4606B080BDC046AF01002064000740BC010020B0010020B4010020B8010020D001002064
:402C0000C4010020000F074017030000800F0740880F0740400207406800074080B586B000AFF860B9607A603B6004237B61BB68002B20D0374B1B78DBB2102B0CD10B202D
:402C4000FFF75EFE344B1B680122134001D0082300E000237B610EE02E4B1B78DBB2602B09D12E4B1B889BB2082293439AB22B4B1A8000237B617B69002B43D1254B292221
:402C80001A70274B00221A60264B7A681A60264BBA681A603B68DAB2244B1A70FB685B00FF22134001221343FB601C4B1B889BB2012293439AB2194B1A801D4B1D4A1A6091
:402CC000184B1B68072B03D81B4B04221A6009E01A4B1A4A1268802149000A431A60164B08221A603B680122134005D000F04EF8134BFA681A6005E0114BFA681A60114B22
:402D000002221A600B20FFF7E7FD7B69181CBD4606B080BDAF01002064000740BC010020CC010020C8010020C0010020C4010020000F074017030000C80F074060000740B9
:402D4000400207406800074080B582B000AF0B20FFF7D6FD0B4B1B889BB27B600A4B1B78DBB220221340DBB2002B03D07B68042213437B600B20FFF7AFFD7B68181CBD463A
:402D800002B080BDBC010020AF01002080B582B000AF254B1B687B60C04600F04FF8031EFBD0002000F058F8204B204A126820490A401A601F4B1F4A1268520052081A601B
:402DC0007B682022134010D0002000F045F80A20FFF7D8FD012000F03FF8C04600F062F8031EFBD00A20FFF7CDFD002000F034F80A20FFF7C7FD104B01221A600D4B0D4A04
:402E00001268802109060A431A60084B074A126807490A40E02109030A431A60012000F01BF8BD4602B080BD6400074000000140FFFFF0FF000007406800074080B500AF4C
:402E4000044B1B68202213405B09DBB2181CBD4680BDC0460400044080B584B000AF021CFB1D1A700E4B1B68DAB20F23FB1810218A431A70FB1D1B781B01DBB21022134052
:402E8000D9B20F23FB180F22BA1812780A431A70034B0F22BA1812781A60BD4604B080BD0000044080B500AF044B1B68102213401B09DBB2181CBD4680BDC04604000440A3
:402EC00080B500AF00F040F8BD4680BD80B500AF064B064A1268802109060A431A6000F025F800F02BF8BD4680BDC0460000064080B500AF064B1B78002B04D1FFF7E0FFC7
:402F0000034B01221A70FFF7E1FFBD4680BDC0468001002080B582B000AF7860024B7A681A60BD4602B080BD8401002080B500AF0A20FFF7D1FCBD4680BDC04680B500AFB0
:402F400000F06AF8BD4680BD80B500AF1F4B204A1A60204B00221A601F4B01221A601F4B1F4A1A601F4B02221A601F4B00221A601E4B01221A601E4B194A1A601D4B00224E
:402F80001A600A20FFF7BCFC0A200321FFF750FC194B0A20191CFFF725FC184B00221A60174B00221A60174B00221A60164B00221A60164B04221A60154B00221A60144B01
:402FC0001B689AB2134B1A80BD4680BD000006400E000002400006404800064000030640070000800403064010030640440006400002064004020640CD380000880E0640EB
:40300000C80E0640480F0640080F0640C80F0640880F06408201002080B500AF064B064A1268F0218A4390210A431A60034B044A12881A60BD4680BD10000140880F06406A
:403040008201002080B582B000AF00F019FC031E04D000F005FC031C7B6002E00B4B1B687B600B4B1A68D8239B0013403B60084BD82292001A603B681B027A6813437B6094
:403080007B68181CBD4602B080BDC04640030640C00F064080B584B000AF78600023FB6009E07A68FB68D3181B78181C00F0F8FBFB680133FB607A68FB68D3181B78002B52
:4030C000EFD1BD4604B080BD80B584B000AF021CFB1D1A700D4B1B68DAB20F23FB1801218A431A70FB1D1B7801221340D9B20F23FB180F22BA1812780A431A70034B0F224B
:40310000BA1812781A60BD4604B080BD0002044080B584B000AF021CFB1D1A700E4B1B68DAB20F23FB1802218A431A70FB1D1B78DB18DBB202221340D9B20F23FB180F22DD
:40314000BA1812780A431A70034B0F22BA1812781A60BD4604B080BD0002044080B584B000AF021CFB1D1A700E4B1B68DAB20F23FB1804218A431A70FB1D1B789B00DBB2B9
:4031800004221340D9B20F23FB180F22BA1812780A431A70034B0F22BA1812781A60BD4604B080BD0002044080B584B000AF021CFB1D1A700E4B1B68DAB20F23FB18082125
:4031C0008A431A70FB1D1B78DB00DBB208221340D9B20F23FB180F22BA1812780A431A70034B0F22BA1812781A60BD4604B080BD0002044080B584B000AF021CFB1D1A704D
:403200000E4B1B68DAB20F23FB1810218A431A70FB1D1B781B01DBB210221340D9B20F23FB180F22BA1812780A431A70034B0F22BA1812781A60BD4604B080BD00020440BD
:4032400080B584B000AF021CFB1D1A700E4B1B68DAB20F23FB1808218A431A70FB1D1B78DB00DBB208221340D9B20F23FB180F22BA1812780A431A70034B0F22BA181278AA
:403280001A60BD4604B080BD0004044080B584B000AF021CFB1D1A700D4B1B68DAB20F23FB1801218A431A70FB1D1B7801221340D9B20F23FB180F22BA1812780A431A7006
:4032C000034B0F22BA1812781A60BD4604B080BD0000044080B584B000AF021CFB1D1A700E4B1B68DAB20F23FB1802218A431A70FB1D1B78DB18DBB202221340D9B20F23E3
:40330000FB180F22BA1812780A431A70034B0F22BA1812781A60BD4604B080BD0003044080B584B000AF021CFB1D1A700D4B1B68DAB20F23FB1801218A431A70FB1D1B78DE
:4033400001221340D9B20F23FB180F22BA1812780A431A70034B0F22BA1812781A60BD4604B080BD000304400230800804D0C0460138FDD1C046C046C0467047EFF310803D
:4033800072B6704780F310887047C046C046C04680B582B000AF00233B60BE4B1B68002B02D0BC4B1B689847BB4B1B680122134002D0BA4B00221A60B94B1B78DBB22022BC
:4033C0001340DBB2002B38D0B64B1A6880235B0013400AD0B44B1B889BB2C022920013439AB2B14B1A8001233B60AE4B1B68012213400AD0AC4B1B889BB290229200134365
:403400009AB2A94B1A8001233B603B68002B14D0A34B1B78DBB201221340DBB2002B01D0012300E00223A04A128892B213439AB29D4B1A809A4B00221A70994B1B78DBB28A
:4034400020221340DBB2002B00D1A2E1954B1B681022134018D0954B10221A60904B1B78DBB201221340DBB2002B01D0012300E002238D4A128892B213439AB28A4B1A8066
:40348000874B10221A70BAE1854B1B78DBB208221340DBB2002B29D0824B1B68022213400ED0824B02221A607F4B1B889BB28822920013439AB27C4B1A8001233B6015E008
:4034C000774B1B78DBB201221340DBB2002B03D0734B25221A7009E0714B24221A70744B1B68002B02D0734B10221A606C4B1B78DBB204221340DBB2002B00D111E1684BBE
:403500001B78DBB201221340DBB2002B5BD06A4B1B680822134033D0684B1A68684B1B680F211940674B1B68CB18D31A7B607B68082B02D908237B600CE07B68002B09D1BB
:40354000614B614A126861490A401A6008237B6001233B6010E05E4B1A685A4B1B68D2185C4B1B68DBB21370564B1B685A1C554B1A607B68013B7B607B68002BEBD11EE06A
:403580004D4B1B680422134019D0514B1A684D4B1B68D2184F4B1B68DBB21370494B1B685A1C484B1A60474B1A68444B1B689A4203D2494B04221A6001E001233B60474B67
:4035C000474A1A60ADE0374B1B680222134032D0364B02221A60434B1B680F221A40414B196880231B020B4001D0012300E00023D2183D4B1B689A1A3B4B1A603A4B1A683A
:403600003A4B1A60284B1B889BB28422920013439AB2254B1A80364B354A1268802149020A431A60324B324A126832490A401A6001233B6075E0304B1B681022134065D099
:4036400015E0294B1A681A4B1B689A420ED22B4A2B4B1968244B1B68CB181B78DBB21360214B1B685A1C204B1A6000E005E01D4B1B680F221340082BE3D11B4B1A680C4B43
:403680001B689A4202D10B4B40221A601D4B1E4A1A6046E07C0100208C0E0740880E0740AF0100200C0F0740BC010020000F0740B8010020880F0740CC0F0740C8010020B4
:4036C00008030740CC01002060000740FFFEFFFFC00100204003074068000740C00F0740ED0F000008020740B0010020B401002004020740FFFFFEFF8C0F07404002074013
:40370000D0010020800F0740F30700003D4B1B684022134005D03C4B1A683C4B1A6001233B603B68002B6AD0394B394A126839490A401A60384B00221A60384B00221A605D
:40374000374B1B78DBB202221340DBB2002B15D0344B1B78DBB201221340DBB2002B01D0092300E00A23304A128892B213439AB22D4B1A802B4B60221A7040E02B4B2C4A22
:40378000126820210A4001D0182200E010221A6035E0244B1B78DBB210221340DBB2002B2DD1244B234A1268520052081A601D4B10221A70164B164A12681F490A401A6087
:4037C000134B134A12681D490A401A60124B00221A60124B00221A60194B1A4A1A601A4B1A4A1A601A4B1B4A1A601B4B1B4A1A60104B104A1268802109060A431A60BD46C1
:4038000002B080BD8C0F0740B0010020B401002060000740FFFEFFFFC80F0740880F0740C4010020AF010020BC010020680007406400074000000740FF5FFFFFFFFCFFFFEB
:40384000800F0740ED0F0000C00F0740F3070000400F0740FF0F0000000F07401703000080B582B000AF00237B60044B1B687B607B68181CBD4602B080BDC04640030640F9
:4038800080B582B000AF054B1B680F2213407B607B68181CBD4602B080BDC0460803064080B582B000AF7860C046064B1B680F221340082BF9D0044B7A681A60BD4602B0B8
:4038C00080BDC046080206404002064080B500AF044B1B68002B02D0024B1B689847BD4680BDC04684010020002243088B4274D303098B425FD3030A8B4244D3030B8B4208
:4039000028D3030C8B420DD3FF22090212BA030C8B4202D31212090265D0030B8B4219D300E0090AC30B8B4201D3CB03C01A5241830B8B4201D38B03C01A5241430B8B421A
:4039400001D34B03C01A5241030B8B4201D30B03C01A5241C30A8B4201D3CB02C01A5241830A8B4201D38B02C01A5241430A8B4201D34B02C01A5241030A8B4201D30B025B
:40398000C01A5241CDD2C3098B4201D3CB01C01A524183098B4201D38B01C01A524143098B4201D34B01C01A524103098B4201D30B01C01A5241C3088B4201D3CB00C01A52
:4039C000524183088B4201D38B00C01A524143088B4201D34B00C01A5241411A00D20146524110467047FFE701B5002000F0FCF802BDC0460029F7D003B5FFF775FF0EBC17
:403A00004243891A1847C04603460B437FD4002243088B4274D303098B425FD3030A8B4244D3030B8B4228D3030C8B420DD3FF22090212BA030C8B4202D31212090265D0F3
:403A4000030B8B4219D300E0090AC30B8B4201D3CB03C01A5241830B8B4201D38B03C01A5241430B8B4201D34B03C01A5241030B8B4201D30B03C01A5241C30A8B4201D376
:403A8000CB02C01A5241830A8B4201D38B02C01A5241430A8B4201D34B02C01A5241030A8B4201D30B02C01A5241CDD2C3098B4201D3CB01C01A524183098B4201D38B01D6
:403AC000C01A524143098B4201D34B01C01A524103098B4201D30B01C01A5241C3088B4201D3CB00C01A524183088B4201D38B00C01A524143088B4201D34B00C01A524121
:403B0000411A00D201465241104670475DE0CA0F00D04942031000D34042534000229C4603098B422DD3030A8B4212D3FC22890112BA030A8B420CD3890192118B4208D367
:403B4000890192118B4204D389013AD0921100E08909C3098B4201D3CB01C01A524183098B4201D38B01C01A524143098B4201D34B01C01A524103098B4201D30B01C01AC6
:403B80005241C3088B4201D3CB00C01A524183088B4201D38B00C01A5241D9D243088B4201D34B00C01A5241411A00D20146634652415B10104601D34042002B00D5494209
:403BC000704763465B1000D3404201B5002000F00BF802BD0029F8D003B5FFF715FF0EBC4243891A1847C0467047C046014B18687047C046500100200E4B70B500251E1C7F
:403C00000D4CE41AA410A54204D0AB00F35898470135F8E700F092FC084B00251E1C084CE41AA410A54204D0AB00F35898470135F8E770BD48450000484500004845000025
:403C400050450000002310B5934203D0CC5CC4540133F9E710BD031C8218934202D019700133FAE7704700000EB410B59DB002A9029008610B4882248860486101204042A2
:403C80001FABC881084804CBA400006801938C8100F06CF80023029A13701DB010BC08BC03B01847FFFFFF7F50010020F0B58E6885B0071C0C1C03920193B34245D390232F
:403CC0008A89DB001A423DD003250969236801985B1A029363695D43EB0F5D19029B6D1001331B189D4200D21D1C381C53050FD5291C00F01DFB061E13D0029A2169FFF75E
:403D0000A1FFA289184B134080221343A38111E02A1C00F065FB061E0CD1381C216900F0C1FA0C23402201203B60A38940421343A38117E0029B2661F61826606561019E4C
:403D4000ED1AA560019BB34200D2019E321C2068039900F092FA0020A3689B1BA36023689E19266005B0F0BD7FFBFFFFF0B59FB0029005938B890E1C171C1B0610D50B69B8
:403D8000002B0DD1402100F0D3FA30603061002804D10C23029A01381360D0E040237361002306AD6B6120336B761033AB763C1C2378002B03D1E31B049312D003E0252B8A
:403DC000F9D00134F4E7049B0298311C3A1CFFF76DFF431C00D1ACE06A69049B944663446B612378002B00D1A3E00122002352426A6002A95432521801342B60EB60AB60C2
:403E00001370AB654F4F2178381C052200F02AFA002808D0C01B01278740381C2B68013418432860EEE72B68DA0604D55322202102A8121811701A0704D553222B2102A8CF
:403E40001218117022782A2A01D0099B0EE0059A111D12680591002A01DB099204E05242EA60022213432B60013409E02278303A092A04D80A214B4301349B18F6E70993B6
:403E800023782E2B18D163782A2B09D1059B02341A1D1B680592002B0DDA01235B420AE0002301342278303A092A04D80A214B4301349B18F6E70793234F2178381C032230
:403EC00000F0D0F9002807D0C01B40278740381C2B6801341843286021781C480622671C297600F0BFF9002812D0194B002B06D10722059B073393430833059314E005AB53
:403F000000930298291C321C124B00E000BF07E005AB00930298291C321C0E4B00F08AF80390039B013304D06B69039A9B186B613DE7B3890B985B0601D5012040421FB0CE
:403F4000F0BDC046064500000C4500001045000000000000AD3C0000F7B5171C01930A698B6800900C1C934200DA131C221C3B6043321278002A01D001333B6023689B0677
:403F800002D53B6802333B60062523681D401ED0231C43331B785A1E9341226892061CD53020E1184031C870211C5A1C45310978A21840320233D1700FE0221C01230098E8
:403FC00001991932089EB047431C0ED00135E3683A689B1A9D42F0DBDAE7221C009801994332089DA847431C02D10120404220E006232068E1683A6803400025042B03D16A
:404000008D1AEB43DB171D40A3682269934201DD9B1AED180027AF420ADA221C0123009801991A32089EB047431CDED00137F2E70020FEBDF0B58BB006920A1C433207933A
:40404000059004920A7E0C1C109B6E2A00D1A8E011D8632A22D009D8002A00D1B2E0582A00D0C2E045310A707C4A4FE0642A1DD0692A1BD0B9E0732A00D1A7E009D86F2A19
:4040800029D0702A00D0B0E0202209680A43226037E0752A1FD0782A33D0A6E00E1C1A684236111D196013683370A1E021681A68080606D4490604D5111D19600023D55E39
:4040C00002E0111D19601568002D3BDA2D23049A6D42137036E021681A68080606D4490604D51568111D1960ADB202E0111D196015685A4B227E03930A276F2A1DD10827DC
:404100001BE0221C782145321170554A19680392081D226818600D68100602D4500600D5ADB2D30702D520231A4322601027002D03D1202322689A432260231C00224333E0
:404140001A7002E00A27454B03936368A360002B03DB0422216891432160002D02D1049E002B0ED0049E281C391CFFF743FC039B013E5B5C281C3370391CFFF7B5FB051EED
:40418000F1D1082F09D12368DB0706D563682269934202DC3023013E3370049B9B1B23612BE009681A68080607D4490605D5111D19601368A28A1A8004E0111D19601368CF
:4041C00062691A600023049E236116E01A68111D196016680021301C626800F043F8002801D0801B6060636803E0261C42363270012323610023049A1370079B0598009316
:40420000211C069B09AAFFF7A7FE431C02D10120404221E0236905980699321C079DA847431CF4D023689B0705D4099BE068984212DA181C10E00025E368099A9B1A9D422D
:40424000F3DA221C0123059806991932079EB047431CDCD00135EFE70BB0F0BD1745000028450000C9B28218904204D003788B4202D00130F8E70020704710B5814208D286
:404280008B18984205D29B1A013A09D3995C8154FAE70023934203D0CC5CC4540133F9E710BD000030B500293ED004390B68002B00DAC9181D4A1368141C002B02D14B60DA
:4042C000116031E099420DD208680A189A4203D11368C3180B6053684B60216024E08A4203D8131C5A68002AF9D11D685C198C420BD10968691858181960904214D110685A
:404300005268091819605A600EE08C4202D90C23036009E008680C18944203D114685268001908604A60596030BDC0468C010020032370B5CC1C9C430834051C0C2C01D2EB
:404340000C2405E0002C03DA0C2300202B6042E08C42F9D3204A1368101C191C002913D00A68121B0DD40B2A02D90A608B181FE08B4202D15A6802601BE04A685A600B1C49
:4043800017E00B1C4968E9E7144E3368002B03D1281C00F04BF83060281C211C00F046F8031C421CD0D00322C61C964386420AD11C60181C07210B301A1D8843821A0AD081
:4043C0005142995007E0311A281C00F02FF8431CBAD0331CECE770BD8C01002088010020F8B5061C0C1C151C002904D1111CFFF79FFF041C18E0002A03D1FFF753FF2C1C99
:4044000012E000F025F8A8420ED2301C291CFFF78FFF071E07D0211C2A1CFFF713FC301C211CFFF73FFF3C1C201CF8BD38B50023064C051C081C2360FEF71CF8431C03D1AE
:404440002368002B00D02B6038BDC046D40100200B1F1A68101F002A04DA891804390B68D01804387047000000000000696E20666C6167203D202D3100000000616C617220
:404480006D204D6164650000796561723A202564206D6F6E74683A202564206461793A256420776B4461793A25642025643A2532643A2564200A0D002525256300000000CD
:4044C000252525630A0D000000300F40000400400F400004030405060708090A0B0C0E0F101112131415161718191B1C1D1E1F2021222325262728292A2B2E2F3031323336
:40450000343500004300232D302B2000686C4C006566674546470030313233343536373839414243444546003031323334353637383961626364656600000000F8B5C04629
:40454000F8BC08BC9E467047211600005D250000F8B5C046F8BC08BC9E467047F915000070450000D0000020880000008000000000000000FA070000D8010020006CDC02AA
:4045800080BB0000300000000000C05D0100000000000000000000000000000000000000000000000000000000000000000000000445000000000000000000000000000029
:4045C000000000000000000000000000000000000000000000000000000000000000000000000000000000000000000000000000F0000020000000000000000000000000AB
:40460000000000000000000000000000000000000000000000000000000000000000000000000000000000000000000000000000000000000000000000000000000000007A
:40464000000000000000000000000000000000000000000000000000000000000000000000000000000000000000000000000000000000000000000000000000000000003A
:4046800000000000000000000000000000000000000000000000000000000000000000000000000000000000000000000000000000000000000000000000000000000000FA
:4046C00000000000000000000000000000000000000000000000000000000000000000000000000000000000000000000000000000000000000000000000000000000000BA
:407FC000B61114000027000000003200000000000000010000000000000000000000000000000000000000000000000000000000000000000000000000000000000000004C
:0200000490303A
:02000000DB52D1
:0200000490402A
:20000000FFFFFFFF00000000000000000000000000000000000000000000000000000000E4
:0200000490501A
:0C000000000204C81193110004DEECE5BE
:0200000490600A
:0100000001FE
:00000001FF